{
  "_format": "hh-sol-artifact-1",
  "contractName": "DR_Registry",
  "sourceName": "contracts/DR_Registry/DR_Registry.sol",
  "abi": [
    {
      "anonymous": false,
      "inputs": [
        {
          "indexed": false,
          "internalType": "bool",
          "name": "isAdmin",
          "type": "bool"
        },
        {
          "indexed": false,
          "internalType": "address",
          "name": "userAddress",
          "type": "address"
        }
      ],
      "name": "Admin",
      "type": "event"
    },
    {
      "anonymous": false,
      "inputs": [
        {
          "indexed": false,
          "internalType": "bool",
          "name": "isMinter",
          "type": "bool"
        },
        {
          "indexed": false,
          "internalType": "address",
          "name": "userAddress",
          "type": "address"
        }
      ],
      "name": "Minter",
      "type": "event"
    },
    {
      "anonymous": false,
      "inputs": [
        {
          "indexed": false,
          "internalType": "bool",
          "name": "isOperator",
          "type": "bool"
        },
        {
          "indexed": false,
          "internalType": "address",
          "name": "userAddress",
          "type": "address"
        }
      ],
      "name": "Operator",
      "type": "event"
    },
    {
      "anonymous": false,
      "inputs": [
        {
          "indexed": true,
          "internalType": "address",
          "name": "previousOwner",
          "type": "address"
        },
        {
          "indexed": true,
          "internalType": "address",
          "name": "newOwner",
          "type": "address"
        }
      ],
      "name": "OwnershipTransferred",
      "type": "event"
    },
    {
      "inputs": [
        {
          "internalType": "address",
          "name": "",
          "type": "address"
        }
      ],
      "name": "admins",
      "outputs": [
        {
          "internalType": "bool",
          "name": "",
          "type": "bool"
        }
      ],
      "stateMutability": "view",
      "type": "function"
    },
    {
      "inputs": [
        {
          "internalType": "address",
          "name": "_owner",
          "type": "address"
        },
        {
          "internalType": "address",
          "name": "_operator",
          "type": "address"
        }
      ],
      "name": "authorised",
      "outputs": [
        {
          "internalType": "bool",
          "name": "",
          "type": "bool"
        }
      ],
      "stateMutability": "view",
      "type": "function"
    },
    {
      "inputs": [
        {
          "internalType": "address",
          "name": "_user",
          "type": "address"
        }
      ],
      "name": "isAdmin",
      "outputs": [
        {
          "internalType": "bool",
          "name": "",
          "type": "bool"
        }
      ],
      "stateMutability": "view",
      "type": "function"
    },
    {
      "inputs": [
        {
          "internalType": "address",
          "name": "_owner",
          "type": "address"
        }
      ],
      "name": "isMinter",
      "outputs": [
        {
          "internalType": "bool",
          "name": "",
          "type": "bool"
        }
      ],
      "stateMutability": "view",
      "type": "function"
    },
    {
      "inputs": [
        {
          "internalType": "address",
          "name": "_contract",
          "type": "address"
        }
      ],
      "name": "isOperator",
      "outputs": [
        {
          "internalType": "bool",
          "name": "",
          "type": "bool"
        }
      ],
      "stateMutability": "view",
      "type": "function"
    },
    {
      "inputs": [
        {
          "internalType": "address",
          "name": "_user",
          "type": "address"
        }
      ],
      "name": "isRegistered",
      "outputs": [
        {
          "internalType": "bool",
          "name": "",
          "type": "bool"
        }
      ],
      "stateMutability": "view",
      "type": "function"
    },
    {
      "inputs": [],
      "name": "isRegistry",
      "outputs": [
        {
          "internalType": "bool",
          "name": "",
          "type": "bool"
        }
      ],
      "stateMutability": "pure",
      "type": "function"
    },
    {
      "inputs": [],
      "name": "owner",
      "outputs": [
        {
          "internalType": "address",
          "name": "",
          "type": "address"
        }
      ],
      "stateMutability": "view",
      "type": "function"
    },
    {
      "inputs": [],
      "name": "register",
      "outputs": [],
      "stateMutability": "nonpayable",
      "type": "function"
    },
    {
      "inputs": [],
      "name": "renounceOwnership",
      "outputs": [],
      "stateMutability": "nonpayable",
      "type": "function"
    },
    {
      "inputs": [
        {
          "internalType": "address",
          "name": "_user",
          "type": "address"
        },
        {
          "internalType": "bool",
          "name": "_state",
          "type": "bool"
        }
      ],
      "name": "setAdmin",
      "outputs": [],
      "stateMutability": "nonpayable",
      "type": "function"
    },
    {
      "inputs": [
        {
          "internalType": "address",
          "name": "_owner",
          "type": "address"
        },
        {
          "internalType": "bool",
          "name": "state",
          "type": "bool"
        }
      ],
      "name": "setMinter",
      "outputs": [],
      "stateMutability": "nonpayable",
      "type": "function"
    },
    {
      "inputs": [
        {
          "internalType": "bool",
          "name": "state",
          "type": "bool"
        }
      ],
      "name": "setMintingPublic",
      "outputs": [],
      "stateMutability": "nonpayable",
      "type": "function"
    },
    {
      "inputs": [
        {
          "internalType": "address",
          "name": "_operator",
          "type": "address"
        },
        {
          "internalType": "bool",
          "name": "_state",
          "type": "bool"
        }
      ],
      "name": "setOperator",
      "outputs": [],
      "stateMutability": "nonpayable",
      "type": "function"
    },
    {
      "inputs": [
        {
          "internalType": "address",
          "name": "newOwner",
          "type": "address"
        }
      ],
      "name": "transferOwnership",
      "outputs": [],
      "stateMutability": "nonpayable",
      "type": "function"
    },
    {
      "inputs": [],
      "name": "withdraw",
      "outputs": [],
      "stateMutability": "nonpayable",
      "type": "function"
    }
  ],
  "bytecode": "0x608060405234801561001057600080fd5b5061001a3361001f565b61006f565b600080546001600160a01b038381166001600160a01b0319831681178455604051919092169283917f8be0079c531659141344cd1fd0a4f28419497f9722a3daafe3b4186f6b6457e09190a35050565b6107ab8061007e6000396000f3fe608060405234801561001057600080fd5b50600436106101005760003560e01c8063715018a611610097578063aa271e1a11610066578063aa271e1a14610204578063c3c5a54714610217578063cf456ae714610243578063f2fde38b1461025657600080fd5b8063715018a6146101c75780637b97c8b5146101cf5780638da5cb5b146101d6578063a5893e70146101f157600080fd5b8063429b62e5116100d3578063429b62e5146101525780634b0bddd214610175578063558a7297146101885780636d70f7ae1461019b57600080fd5b806303723598146101055780631aa3a0081461012d57806324d7806c146101375780633ccfd60b1461014a575b600080fd5b6101186101133660046106c8565b610269565b60405190151581526020015b60405180910390f35b6101356102b5565b005b6101186101453660046106a6565b6102c2565b6101356102f9565b6101186101603660046106a6565b60056020526000908152604090205460ff1681565b6101356101833660046106fb565b610304565b6101356101963660046106fb565b61039e565b6101186101a93660046106a6565b6001600160a01b031660009081526002602052604090205460ff1690565b61013561042e565b6001610118565b6000546040516001600160a01b039091168152602001610124565b6101356101ff366004610725565b610462565b6101186102123660046106a6565b6104a6565b6101186102253660046106a6565b6001600160a01b031660009081526001602052604090205460ff1690565b6101356102513660046106fb565b6104d4565b6101356102643660046106a6565b610564565b6001600160a01b03811660009081526002602052604081205460ff16610291575060006102af565b506001600160a01b03821660009081526001602052604090205460ff165b92915050565b6102c03360016105ff565b565b600080546001600160a01b03838116911614806102af5750506001600160a01b031660009081526005602052604090205460ff1690565b6102c03360006105ff565b6000546001600160a01b031633146103375760405162461bcd60e51b815260040161032e90610740565b60405180910390fd5b6001600160a01b038216600081815260056020908152604091829020805460ff19168515159081179091558251908152908101929092527fbd5f576b1e989fae11b4ac1e3b7b2a59e875ee1b6172ed8dcb0da61ea7b6765f91015b60405180910390a15050565b6000546001600160a01b03163314806103c657503360009081526005602052604090205460ff165b6103cf57600080fd5b6001600160a01b038216600081815260026020908152604091829020805460ff19168515159081179091558251908152908101929092527fbd5f576b1e989fae11b4ac1e3b7b2a59e875ee1b6172ed8dcb0da61ea7b6765f9101610392565b6000546001600160a01b031633146104585760405162461bcd60e51b815260040161032e90610740565b6102c0600061062a565b6000546001600160a01b031633148061048a57503360009081526005602052604090205460ff165b61049357600080fd5b6004805460ff1916911515919091179055565b60045460009060ff16806102af5750506001600160a01b031660009081526003602052604090205460ff1690565b6000546001600160a01b03163314806104fc57503360009081526005602052604090205460ff165b61050557600080fd5b6001600160a01b038216600081815260036020908152604091829020805460ff19168515159081179091558251908152908101929092527fb78567d8d4fb33cddbe8abd908559a64b89883e6a47f1bda86d0f4363e2e84e59101610392565b6000546001600160a01b0316331461058e5760405162461bcd60e51b815260040161032e90610740565b6001600160a01b0381166105f35760405162461bcd60e51b815260206004820152602660248201527f4f776e61626c653a206e6577206f776e657220697320746865207a65726f206160448201526564647265737360d01b606482015260840161032e565b6105fc8161062a565b50565b6001600160a01b03919091166000908152600160205260409020805460ff1916911515919091179055565b600080546001600160a01b038381166001600160a01b0319831681178455604051919092169283917f8be0079c531659141344cd1fd0a4f28419497f9722a3daafe3b4186f6b6457e09190a35050565b80356001600160a01b038116811461069157600080fd5b919050565b8035801515811461069157600080fd5b6000602082840312156106b857600080fd5b6106c18261067a565b9392505050565b600080604083850312156106db57600080fd5b6106e48361067a565b91506106f26020840161067a565b90509250929050565b6000806040838503121561070e57600080fd5b6107178361067a565b91506106f260208401610696565b60006020828403121561073757600080fd5b6106c182610696565b6020808252818101527f4f776e61626c653a2063616c6c6572206973206e6f7420746865206f776e657260408201526060019056fea2646970667358221220ace55ea3fd3a769d5ccc1fd8c3db81166394bd6e576db5ac1bed785187365f9764736f6c63430008070033",
  "linkReferences": {},
  "deployedLinkReferences": {}
}