{
  "_format": "hh-sol-artifact-1",
  "contractName": "DR_Sale",
  "sourceName": "contracts/dr_sale/DR_Sale.sol",
  "abi": [
    {
      "inputs": [
        {
          "internalType": "address",
          "name": "_wallet",
          "type": "address"
        },
        {
          "internalType": "uint256",
          "name": "_ownerPerMille",
          "type": "uint256"
        },
        {
          "internalType": "uint256",
          "name": "_creatorPerMille",
          "type": "uint256"
        },
        {
          "internalType": "uint256",
          "name": "_divisor",
          "type": "uint256"
        },
        {
          "internalType": "contract IDR_Registry",
          "name": "_registry",
          "type": "address"
        }
      ],
      "stateMutability": "nonpayable",
      "type": "constructor"
    },
    {
      "anonymous": false,
      "inputs": [
        {
          "indexed": false,
          "internalType": "address",
          "name": "bidder",
          "type": "address"
        },
        {
          "indexed": false,
          "internalType": "uint256",
          "name": "tokenId",
          "type": "uint256"
        },
        {
          "indexed": false,
          "internalType": "uint256",
          "name": "previous_bid",
          "type": "uint256"
        },
        {
          "indexed": false,
          "internalType": "uint256",
          "name": "this_bid",
          "type": "uint256"
        }
      ],
      "name": "BidIncreased",
      "type": "event"
    },
    {
      "anonymous": false,
      "inputs": [
        {
          "indexed": false,
          "internalType": "address",
          "name": "bidder",
          "type": "address"
        },
        {
          "indexed": false,
          "internalType": "uint256",
          "name": "tokenId",
          "type": "uint256"
        },
        {
          "indexed": false,
          "internalType": "uint256",
          "name": "bid",
          "type": "uint256"
        }
      ],
      "name": "BidReceived",
      "type": "event"
    },
    {
      "anonymous": false,
      "inputs": [
        {
          "indexed": false,
          "internalType": "uint256",
          "name": "itemRef",
          "type": "uint256"
        },
        {
          "indexed": false,
          "internalType": "address",
          "name": "token_address",
          "type": "address"
        },
        {
          "indexed": false,
          "internalType": "uint256",
          "name": "token_id",
          "type": "uint256"
        },
        {
          "indexed": false,
          "internalType": "address",
          "name": "owner",
          "type": "address"
        },
        {
          "indexed": false,
          "internalType": "string",
          "name": "uri",
          "type": "string"
        },
        {
          "indexed": false,
          "internalType": "uint256",
          "name": "royalty",
          "type": "uint256"
        }
      ],
      "name": "ItemAdded",
      "type": "event"
    },
    {
      "anonymous": false,
      "inputs": [
        {
          "indexed": false,
          "internalType": "uint256",
          "name": "itemRef",
          "type": "uint256"
        },
        {
          "indexed": false,
          "internalType": "address",
          "name": "contract_address",
          "type": "address"
        },
        {
          "indexed": false,
          "internalType": "uint256",
          "name": "tokenId",
          "type": "uint256"
        },
        {
          "indexed": false,
          "internalType": "uint256",
          "name": "asking_price",
          "type": "uint256"
        },
        {
          "indexed": false,
          "internalType": "address",
          "name": "payment_token",
          "type": "address"
        },
        {
          "indexed": false,
          "internalType": "string",
          "name": "uri",
          "type": "string"
        },
        {
          "indexed": false,
          "internalType": "uint256",
          "name": "royalty",
          "type": "uint256"
        },
        {
          "indexed": false,
          "internalType": "address",
          "name": "owner",
          "type": "address"
        },
        {
          "indexed": false,
          "internalType": "bool",
          "name": "resale",
          "type": "bool"
        }
      ],
      "name": "ItemOnSale",
      "type": "event"
    },
    {
      "anonymous": false,
      "inputs": [
        {
          "indexed": false,
          "internalType": "address",
          "name": "userAddress",
          "type": "address"
        },
        {
          "indexed": false,
          "internalType": "address payable",
          "name": "relayerAddress",
          "type": "address"
        },
        {
          "indexed": false,
          "internalType": "bytes",
          "name": "functionSignature",
          "type": "bytes"
        }
      ],
      "name": "MetaTransactionExecuted",
      "type": "event"
    },
    {
      "anonymous": false,
      "inputs": [
        {
          "indexed": false,
          "internalType": "uint256",
          "name": "tokenId",
          "type": "uint256"
        },
        {
          "indexed": false,
          "internalType": "address",
          "name": "owner",
          "type": "address"
        },
        {
          "indexed": false,
          "internalType": "uint256",
          "name": "price",
          "type": "uint256"
        },
        {
          "indexed": false,
          "internalType": "string",
          "name": "hash",
          "type": "string"
        }
      ],
      "name": "NewOffer",
      "type": "event"
    },
    {
      "anonymous": false,
      "inputs": [
        {
          "indexed": false,
          "internalType": "address",
          "name": "buyer",
          "type": "address"
        },
        {
          "indexed": false,
          "internalType": "address",
          "name": "seller",
          "type": "address"
        },
        {
          "indexed": false,
          "internalType": "uint256",
          "name": "itemRef",
          "type": "uint256"
        },
        {
          "indexed": false,
          "internalType": "address",
          "name": "contract_address",
          "type": "address"
        },
        {
          "indexed": false,
          "internalType": "uint256",
          "name": "tokenId",
          "type": "uint256"
        },
        {
          "indexed": false,
          "internalType": "uint256",
          "name": "price",
          "type": "uint256"
        },
        {
          "indexed": false,
          "internalType": "address",
          "name": "payment_token",
          "type": "address"
        }
      ],
      "name": "OfferAccepted",
      "type": "event"
    },
    {
      "anonymous": false,
      "inputs": [
        {
          "indexed": true,
          "internalType": "address",
          "name": "previousOwner",
          "type": "address"
        },
        {
          "indexed": true,
          "internalType": "address",
          "name": "newOwner",
          "type": "address"
        }
      ],
      "name": "OwnershipTransferred",
      "type": "event"
    },
    {
      "anonymous": false,
      "inputs": [
        {
          "indexed": false,
          "internalType": "address",
          "name": "wallet",
          "type": "address"
        },
        {
          "indexed": false,
          "internalType": "address",
          "name": "creator",
          "type": "address"
        },
        {
          "indexed": false,
          "internalType": "address",
          "name": "_owner",
          "type": "address"
        }
      ],
      "name": "Payment",
      "type": "event"
    },
    {
      "anonymous": false,
      "inputs": [
        {
          "indexed": false,
          "internalType": "address[]",
          "name": "first_payees",
          "type": "address[]"
        },
        {
          "indexed": false,
          "internalType": "uint256[]",
          "name": "first_shares",
          "type": "uint256[]"
        },
        {
          "indexed": false,
          "internalType": "address[]",
          "name": "resale_payees",
          "type": "address[]"
        },
        {
          "indexed": false,
          "internalType": "uint256[]",
          "name": "resale_shares",
          "type": "uint256[]"
        },
        {
          "indexed": false,
          "internalType": "uint256",
          "name": "itemRef",
          "type": "uint256"
        },
        {
          "indexed": false,
          "internalType": "uint256",
          "name": "tokenId",
          "type": "uint256"
        }
      ],
      "name": "Royalties",
      "type": "event"
    },
    {
      "anonymous": false,
      "inputs": [
        {
          "indexed": false,
          "internalType": "uint256",
          "name": "tokenId",
          "type": "uint256"
        },
        {
          "indexed": false,
          "internalType": "uint256",
          "name": "price",
          "type": "uint256"
        }
      ],
      "name": "SaleResubmitted",
      "type": "event"
    },
    {
      "anonymous": false,
      "inputs": [
        {
          "indexed": false,
          "internalType": "address",
          "name": "owner",
          "type": "address"
        },
        {
          "indexed": false,
          "internalType": "uint256",
          "name": "itemRef",
          "type": "uint256"
        },
        {
          "indexed": false,
          "internalType": "address",
          "name": "contract_address",
          "type": "address"
        },
        {
          "indexed": false,
          "internalType": "uint256",
          "name": "tokenId",
          "type": "uint256"
        }
      ],
      "name": "SaleRetracted",
      "type": "event"
    },
    {
      "anonymous": false,
      "inputs": [
        {
          "indexed": false,
          "internalType": "uint256",
          "name": "ownerShare",
          "type": "uint256"
        },
        {
          "indexed": false,
          "internalType": "uint256",
          "name": "creatorShare",
          "type": "uint256"
        },
        {
          "indexed": false,
          "internalType": "uint256",
          "name": "divisor",
          "type": "uint256"
        }
      ],
      "name": "SharesUpdated",
      "type": "event"
    },
    {
      "anonymous": false,
      "inputs": [
        {
          "indexed": true,
          "internalType": "address",
          "name": "previousWallet",
          "type": "address"
        },
        {
          "indexed": true,
          "internalType": "address",
          "name": "newWallet",
          "type": "address"
        }
      ],
      "name": "WalletTransferred",
      "type": "event"
    },
    {
      "inputs": [],
      "name": "ERC712_VERSION",
      "outputs": [
        {
          "internalType": "string",
          "name": "",
          "type": "string"
        }
      ],
      "stateMutability": "view",
      "type": "function"
    },
    {
      "inputs": [
        {
          "internalType": "address",
          "name": "token_address",
          "type": "address"
        },
        {
          "internalType": "uint256",
          "name": "tokenId",
          "type": "uint256"
        }
      ],
      "name": "available",
      "outputs": [
        {
          "internalType": "bool",
          "name": "",
          "type": "bool"
        }
      ],
      "stateMutability": "view",
      "type": "function"
    },
    {
      "inputs": [
        {
          "internalType": "uint256",
          "name": "",
          "type": "uint256"
        },
        {
          "internalType": "address",
          "name": "",
          "type": "address"
        }
      ],
      "name": "bids",
      "outputs": [
        {
          "internalType": "uint256",
          "name": "",
          "type": "uint256"
        }
      ],
      "stateMutability": "view",
      "type": "function"
    },
    {
      "inputs": [
        {
          "internalType": "address",
          "name": "token_address",
          "type": "address"
        },
        {
          "internalType": "uint256",
          "name": "tokenId",
          "type": "uint256"
        }
      ],
      "name": "buy",
      "outputs": [],
      "stateMutability": "payable",
      "type": "function"
    },
    {
      "inputs": [
        {
          "internalType": "address",
          "name": "token_address",
          "type": "address"
        },
        {
          "internalType": "uint256",
          "name": "tokenId",
          "type": "uint256"
        }
      ],
      "name": "cancel_sale",
      "outputs": [],
      "stateMutability": "nonpayable",
      "type": "function"
    },
    {
      "inputs": [
        {
          "internalType": "address",
          "name": "newWallet",
          "type": "address"
        }
      ],
      "name": "changeWallet",
      "outputs": [],
      "stateMutability": "nonpayable",
      "type": "function"
    },
    {
      "inputs": [
        {
          "internalType": "address",
          "name": "token_address",
          "type": "address"
        },
        {
          "internalType": "uint256",
          "name": "tokenId",
          "type": "uint256"
        },
        {
          "internalType": "uint256",
          "name": "asking_price",
          "type": "uint256"
        }
      ],
      "name": "change_price",
      "outputs": [],
      "stateMutability": "nonpayable",
      "type": "function"
    },
    {
      "inputs": [],
      "name": "creatorPerMille",
      "outputs": [
        {
          "internalType": "uint256",
          "name": "",
          "type": "uint256"
        }
      ],
      "stateMutability": "view",
      "type": "function"
    },
    {
      "inputs": [],
      "name": "divisor",
      "outputs": [
        {
          "internalType": "uint256",
          "name": "",
          "type": "uint256"
        }
      ],
      "stateMutability": "view",
      "type": "function"
    },
    {
      "inputs": [
        {
          "internalType": "address",
          "name": "userAddress",
          "type": "address"
        },
        {
          "internalType": "bytes",
          "name": "functionSignature",
          "type": "bytes"
        },
        {
          "internalType": "bytes32",
          "name": "sigR",
          "type": "bytes32"
        },
        {
          "internalType": "bytes32",
          "name": "sigS",
          "type": "bytes32"
        },
        {
          "internalType": "uint8",
          "name": "sigV",
          "type": "uint8"
        }
      ],
      "name": "executeMetaTransaction",
      "outputs": [
        {
          "internalType": "bytes",
          "name": "",
          "type": "bytes"
        }
      ],
      "stateMutability": "payable",
      "type": "function"
    },
    {
      "inputs": [],
      "name": "first_cut",
      "outputs": [
        {
          "internalType": "uint256",
          "name": "",
          "type": "uint256"
        }
      ],
      "stateMutability": "view",
      "type": "function"
    },
    {
      "inputs": [],
      "name": "getChainId",
      "outputs": [
        {
          "internalType": "uint256",
          "name": "",
          "type": "uint256"
        }
      ],
      "stateMutability": "view",
      "type": "function"
    },
    {
      "inputs": [],
      "name": "getDomainSeperator",
      "outputs": [
        {
          "internalType": "bytes32",
          "name": "",
          "type": "bytes32"
        }
      ],
      "stateMutability": "view",
      "type": "function"
    },
    {
      "inputs": [
        {
          "internalType": "address",
          "name": "user",
          "type": "address"
        }
      ],
      "name": "getNonce",
      "outputs": [
        {
          "internalType": "uint256",
          "name": "nonce",
          "type": "uint256"
        }
      ],
      "stateMutability": "view",
      "type": "function"
    },
    {
      "inputs": [
        {
          "internalType": "address",
          "name": "",
          "type": "address"
        },
        {
          "internalType": "uint256",
          "name": "",
          "type": "uint256"
        }
      ],
      "name": "items",
      "outputs": [
        {
          "internalType": "address",
          "name": "creator",
          "type": "address"
        },
        {
          "internalType": "string",
          "name": "itemHash",
          "type": "string"
        },
        {
          "internalType": "uint256",
          "name": "price",
          "type": "uint256"
        },
        {
          "internalType": "address",
          "name": "token",
          "type": "address"
        },
        {
          "internalType": "bool",
          "name": "available",
          "type": "bool"
        },
        {
          "internalType": "bool",
          "name": "minted",
          "type": "bool"
        },
        {
          "internalType": "uint256",
          "name": "itemRef",
          "type": "uint256"
        },
        {
          "internalType": "bool",
          "name": "auction",
          "type": "bool"
        },
        {
          "internalType": "uint256",
          "name": "duration",
          "type": "uint256"
        },
        {
          "internalType": "uint256",
          "name": "royalty",
          "type": "uint256"
        }
      ],
      "stateMutability": "view",
      "type": "function"
    },
    {
      "inputs": [
        {
          "internalType": "address",
          "name": "contract_address",
          "type": "address"
        },
        {
          "internalType": "string",
          "name": "ipfsString",
          "type": "string"
        },
        {
          "internalType": "uint256",
          "name": "asking_price",
          "type": "uint256"
        },
        {
          "internalType": "address",
          "name": "token",
          "type": "address"
        },
        {
          "internalType": "uint256",
          "name": "royalty",
          "type": "uint256"
        },
        {
          "internalType": "address[]",
          "name": "first_payees",
          "type": "address[]"
        },
        {
          "internalType": "uint256[]",
          "name": "first_shares",
          "type": "uint256[]"
        },
        {
          "internalType": "address[]",
          "name": "payees",
          "type": "address[]"
        },
        {
          "internalType": "uint256[]",
          "name": "shares",
          "type": "uint256[]"
        }
      ],
      "name": "mint_and_sell_lazy",
      "outputs": [],
      "stateMutability": "nonpayable",
      "type": "function"
    },
    {
      "inputs": [
        {
          "internalType": "address",
          "name": "contract_address",
          "type": "address"
        },
        {
          "internalType": "string",
          "name": "ipfsString",
          "type": "string"
        },
        {
          "internalType": "uint256",
          "name": "asking_price",
          "type": "uint256"
        },
        {
          "internalType": "uint256",
          "name": "royalty",
          "type": "uint256"
        },
        {
          "internalType": "address[]",
          "name": "first_payees",
          "type": "address[]"
        },
        {
          "internalType": "uint256[]",
          "name": "first_shares",
          "type": "uint256[]"
        },
        {
          "internalType": "address[]",
          "name": "payees",
          "type": "address[]"
        },
        {
          "internalType": "uint256[]",
          "name": "shares",
          "type": "uint256[]"
        }
      ],
      "name": "mint_and_sell_lazy_native",
      "outputs": [],
      "stateMutability": "nonpayable",
      "type": "function"
    },
    {
      "inputs": [
        {
          "internalType": "address",
          "name": "contract_address",
          "type": "address"
        },
        {
          "internalType": "string",
          "name": "ipfsString",
          "type": "string"
        },
        {
          "internalType": "uint256",
          "name": "royalty",
          "type": "uint256"
        },
        {
          "internalType": "address[]",
          "name": "first_payees",
          "type": "address[]"
        },
        {
          "internalType": "uint256[]",
          "name": "first_shares",
          "type": "uint256[]"
        },
        {
          "internalType": "address[]",
          "name": "payees",
          "type": "address[]"
        },
        {
          "internalType": "uint256[]",
          "name": "shares",
          "type": "uint256[]"
        }
      ],
      "name": "mint_lazy",
      "outputs": [
        {
          "internalType": "uint256",
          "name": "",
          "type": "uint256"
        }
      ],
      "stateMutability": "nonpayable",
      "type": "function"
    },
    {
      "inputs": [],
      "name": "nextToken",
      "outputs": [
        {
          "internalType": "uint256",
          "name": "",
          "type": "uint256"
        }
      ],
      "stateMutability": "view",
      "type": "function"
    },
    {
      "inputs": [
        {
          "internalType": "address",
          "name": "",
          "type": "address"
        }
      ],
      "name": "nextTokenId",
      "outputs": [
        {
          "internalType": "uint256",
          "name": "",
          "type": "uint256"
        }
      ],
      "stateMutability": "view",
      "type": "function"
    },
    {
      "inputs": [
        {
          "internalType": "address",
          "name": "token_address",
          "type": "address"
        },
        {
          "internalType": "uint256",
          "name": "tokenId",
          "type": "uint256"
        },
        {
          "internalType": "uint256",
          "name": "asking_price",
          "type": "uint256"
        },
        {
          "internalType": "address",
          "name": "token",
          "type": "address"
        }
      ],
      "name": "offerResale",
      "outputs": [],
      "stateMutability": "nonpayable",
      "type": "function"
    },
    {
      "inputs": [
        {
          "internalType": "address",
          "name": "token_address",
          "type": "address"
        },
        {
          "internalType": "uint256",
          "name": "tokenId",
          "type": "uint256"
        },
        {
          "internalType": "uint256",
          "name": "asking_price",
          "type": "uint256"
        }
      ],
      "name": "offerResaleNative",
      "outputs": [],
      "stateMutability": "nonpayable",
      "type": "function"
    },
    {
      "inputs": [],
      "name": "owner",
      "outputs": [
        {
          "internalType": "address",
          "name": "",
          "type": "address"
        }
      ],
      "stateMutability": "view",
      "type": "function"
    },
    {
      "inputs": [],
      "name": "ownerPerMille",
      "outputs": [
        {
          "internalType": "uint256",
          "name": "",
          "type": "uint256"
        }
      ],
      "stateMutability": "view",
      "type": "function"
    },
    {
      "inputs": [
        {
          "internalType": "address",
          "name": "token_address",
          "type": "address"
        },
        {
          "internalType": "uint256",
          "name": "tokenId",
          "type": "uint256"
        }
      ],
      "name": "price",
      "outputs": [
        {
          "internalType": "uint256",
          "name": "asking_price",
          "type": "uint256"
        },
        {
          "internalType": "address",
          "name": "token",
          "type": "address"
        }
      ],
      "stateMutability": "view",
      "type": "function"
    },
    {
      "inputs": [
        {
          "internalType": "uint256",
          "name": "",
          "type": "uint256"
        }
      ],
      "name": "refToToken",
      "outputs": [
        {
          "internalType": "address",
          "name": "token_address",
          "type": "address"
        },
        {
          "internalType": "uint256",
          "name": "token_id",
          "type": "uint256"
        }
      ],
      "stateMutability": "view",
      "type": "function"
    },
    {
      "inputs": [],
      "name": "registry",
      "outputs": [
        {
          "internalType": "contract IDR_Registry",
          "name": "",
          "type": "address"
        }
      ],
      "stateMutability": "view",
      "type": "function"
    },
    {
      "inputs": [
        {
          "internalType": "address",
          "name": "contract_address",
          "type": "address"
        },
        {
          "internalType": "uint256",
          "name": "tokenId",
          "type": "uint256"
        },
        {
          "internalType": "uint256",
          "name": "asking_price",
          "type": "uint256"
        },
        {
          "internalType": "address",
          "name": "token",
          "type": "address"
        }
      ],
      "name": "sell",
      "outputs": [],
      "stateMutability": "nonpayable",
      "type": "function"
    },
    {
      "inputs": [
        {
          "internalType": "address",
          "name": "contract_address",
          "type": "address"
        },
        {
          "internalType": "uint256",
          "name": "tokenId",
          "type": "uint256"
        },
        {
          "internalType": "uint256",
          "name": "asking_price",
          "type": "uint256"
        }
      ],
      "name": "sell_native",
      "outputs": [],
      "stateMutability": "nonpayable",
      "type": "function"
    },
    {
      "inputs": [
        {
          "internalType": "address",
          "name": "newOwner",
          "type": "address"
        }
      ],
      "name": "transferOwnership",
      "outputs": [],
      "stateMutability": "nonpayable",
      "type": "function"
    },
    {
      "inputs": [
        {
          "internalType": "uint256",
          "name": "_ownerPerMille",
          "type": "uint256"
        },
        {
          "internalType": "uint256",
          "name": "_creatorPerMille",
          "type": "uint256"
        },
        {
          "internalType": "uint256",
          "name": "_divisor",
          "type": "uint256"
        }
      ],
      "name": "updateShares",
      "outputs": [],
      "stateMutability": "nonpayable",
      "type": "function"
    },
    {
      "inputs": [],
      "name": "wallet",
      "outputs": [
        {
          "internalType": "address",
          "name": "",
          "type": "address"
        }
      ],
      "stateMutability": "view",
      "type": "function"
    }
  ],
  "bytecode": "0x60806040526000805460ff19169055600380546001600160a01b031916331790556064600c553480156200003257600080fd5b506040516200606c3803806200606c833981016040819052620000559162000396565b6103e86200006485856200041e565b1115620000ed5760405162461bcd60e51b815260206004820152604660248201527f73756d285f63726561746f725065724d696c6c65202b205f6f776e657250657260448201527f4d696c6c6529206d757374206265206c657373207468616e206f72206571756160648201526506c20313030360d41b608482015260a4015b60405180910390fd5b6103e8821015620001415760405162461bcd60e51b815260206004820152601960248201527f64697669736f72206973206c657373207468616e2031303030000000000000006044820152606401620000e4565b806001600160a01b0316637b97c8b56040518163ffffffff1660e01b815260040160206040518083038186803b1580156200017b57600080fd5b505afa15801562000190573d6000803e3d6000fd5b505050506040513d601f19601f82011682018060405250810190620001b69190620003f3565b620001c057600080fd5b600a80546001600160a01b0319166001600160a01b03871617905560078490556008839055600982905560408051808201909152600f81526e4d696e7479556e6971756553616c6560881b60208201526200021b9062000282565b600680546001600160a01b0319166001600160a01b03831617905560408051858152602081018590529081018390527ff81b1f9d8b5d36a5a67d13006a8b091a9b63e2a38b331d315d99c6daefd2ddcc9060600160405180910390a150505050506200045e565b60005460ff1615620002c85760405162461bcd60e51b815260206004820152600e60248201526d185b1c9958591e481a5b9a5d195960921b6044820152606401620000e4565b620002d381620002e3565b506000805460ff19166001179055565b6040518060800160405280604f81526020016200601d604f913980516020918201208251838301206040805180820190915260018152603160f81b930192909252907fc89efdaa54c0f20c7adf612882df0950f5a951637e0307cdcb4c672f298b8bc6304660408051602081019690965285019390935260608401919091526001600160a01b0316608083015260a082015260c00160408051601f19818403018152919052805160209091012060015550565b600080600080600060a08688031215620003af57600080fd5b8551620003bc8162000445565b809550506020860151935060408601519250606086015191506080860151620003e58162000445565b809150509295509295909350565b6000602082840312156200040657600080fd5b815180151581146200041757600080fd5b9392505050565b600082198211156200044057634e487b7160e01b600052601160045260246000fd5b500190565b6001600160a01b03811681146200045b57600080fd5b50565b615baf806200046e6000396000f3fe6080604052600436106101e35760003560e01c80639499ac5411610102578063cb61b42d11610095578063ea7cb75a11610064578063ea7cb75a146105c7578063f2fde38b146105dd578063f8003bde146105fd578063f8724aba1461065c57600080fd5b8063cb61b42d1461055e578063ccb3eae81461057e578063cce7ec1314610594578063d65dfd12146105a757600080fd5b8063af7ec13b116100d1578063af7ec13b146104d1578063bab7a781146104f1578063c64c9f9714610511578063c852b1bf1461053157600080fd5b80639499ac541461043e57806398b9a2dc1461045457806399088c3014610474578063ad9b80241461049457600080fd5b80632d0335ab1161017a578063521eb27311610149578063521eb273146103905780635c80a435146103c85780637b103999146103fe5780638da5cb5b1461041e57600080fd5b80632d0335ab146102ef5780632dc8f867146103255780633408e470146103455780633f1ffcec1461035857600080fd5b80631f2dc5ef116101b65780631f2dc5ef1461028057806320379ee5146102a457806320540adc146102b9578063239d4b01146102cf57600080fd5b806303a6de18146101e8578063091421a21461020a5780630c53c51c1461022a5780630f7e597014610253575b600080fd5b3480156101f457600080fd5b506102086102033660046152a2565b61068c565b005b34801561021657600080fd5b506102086102253660046153f9565b6106b7565b61023d61023836600461501d565b610fd5565b60405161024a91906157b8565b60405180910390f35b34801561025f57600080fd5b5061023d604051806040016040528060018152602001603160f81b81525081565b34801561028c57600080fd5b5061029660095481565b60405190815260200161024a565b3480156102b057600080fd5b50600154610296565b3480156102c557600080fd5b5061029660075481565b3480156102db57600080fd5b506102966102ea3660046151b6565b6111bf565b3480156102fb57600080fd5b5061029661030a366004614fe3565b6001600160a01b031660009081526002602052604090205490565b34801561033157600080fd5b506102086103403660046153f9565b6119d5565b34801561035157600080fd5b5046610296565b34801561036457600080fd5b5061029661037336600461550e565b600f60209081526000928352604080842090915290825290205481565b34801561039c57600080fd5b50600a546103b0906001600160a01b031681565b6040516001600160a01b03909116815260200161024a565b3480156103d457600080fd5b506103e86103e3366004615398565b611f3a565b60405161024a9a999897969594939291906156ea565b34801561040a57600080fd5b506006546103b0906001600160a01b031681565b34801561042a57600080fd5b506003546103b0906001600160a01b031681565b34801561044a57600080fd5b5061029660045481565b34801561046057600080fd5b5061020861046f366004614fe3565b61203b565b34801561048057600080fd5b5061020861048f3660046153c4565b612127565b3480156104a057600080fd5b506104b46104af366004615398565b6126a0565b604080519283526001600160a01b0390911660208301520161024a565b3480156104dd57600080fd5b506102086104ec366004615398565b612c2f565b3480156104fd57600080fd5b5061020861050c3660046153c4565b6131bb565b34801561051d57600080fd5b5061020861052c3660046150af565b6131cd565b34801561053d57600080fd5b5061029661054c366004614fe3565b600d6020526000908152604090205481565b34801561056a57600080fd5b5061020861057936600461553e565b6131f8565b34801561058a57600080fd5b5061029660085481565b6102086105a2366004615398565b613355565b3480156105b357600080fd5b506102086105c23660046153c4565b6134a9565b3480156105d357600080fd5b50610296600c5481565b3480156105e957600080fd5b506102086105f8366004614fe3565b6134b6565b34801561060957600080fd5b5061063d6106183660046154dc565b600e60205260009081526040902080546001909101546001600160a01b039091169082565b604080516001600160a01b03909316835260208301919091520161024a565b34801561066857600080fd5b5061067c610677366004615398565b6135a2565b604051901515815260200161024a565b600061069d898988888888886111bf565b90506106ac89828960006119d5565b505050505050505050565b6060806060806000886001600160a01b0316636352211e896040518263ffffffff1660e01b81526004016106ed91815260200190565b60206040518083038186803b15801561070557600080fd5b505afa158015610719573d6000803e3d6000fd5b505050506040513d601f19601f8201168201806040525081019061073d9190615000565b6001600160a01b031661074e613a5e565b6001600160a01b0316146107a95760405162461bcd60e51b815260206004820152601960248201527f596f7520646f206e6f74206f776e207468697320746f6b656e0000000000000060448201526064015b60405180910390fd5b886001600160a01b031663e985e9c56107c0613a5e565b6040516001600160e01b031960e084901b1681526001600160a01b03909116600482015230602482015260440160206040518083038186803b15801561080557600080fd5b505afa158015610819573d6000803e3d6000fd5b505050506040513d601f19601f8201168201806040525081019061083d9190615443565b806108c8575060405163020604bf60e21b81526004810189905230906001600160a01b038b169063081812fc9060240160206040518083038186803b15801561088557600080fd5b505afa158015610899573d6000803e3d6000fd5b505050506040513d601f19601f820116820180604052508101906108bd9190615000565b6001600160a01b0316145b61093a5760405162461bcd60e51b815260206004820152603760248201527f596f752068617665206e6f7420617070726f766564207468697320636f6e747260448201527f61637420746f2073656c6c20796f757220746f6b656e7300000000000000000060648201526084016107a0565b6001600160a01b03808a1660009081526005602090815260408083208c8452825280832081516101c081019092528054909416815260018401805493949193919284019161098790615a89565b80601f01602080910402602001604051908101604052809291908181526020018280546109b390615a89565b8015610a005780601f106109d557610100808354040283529160200191610a00565b820191906000526020600020905b8154815290600101906020018083116109e357829003601f168201915b5050509183525050600282015460208083019190915260038301546001600160a01b03811660408085019190915260ff600160a01b8304811615156060860152600160a81b909204821615156080850152600485015460a08501526005850154909116151560c0840152600684015460e08401526007840154610100840152600884018054825181850281018501909352808352610120909401939192909190830182828015610ad957602002820191906000526020600020905b81546001600160a01b03168152600190910190602001808311610abb575b5050505050815260200160098201805480602002602001604051908101604052809291908181526020018280548015610b3157602002820191906000526020600020905b815481526020019060010190808311610b1d575b50505050508152602001600a8201805480602002602001604051908101604052809291908181526020018280548015610b9357602002820191906000526020600020905b81546001600160a01b03168152600190910190602001808311610b75575b50505050508152602001600b8201805480602002602001604051908101604052809291908181526020018280548015610beb57602002820191906000526020600020905b815481526020019060010190808311610bd7575b50505050508152505090508060c0015160001415610c74576001600b6000828254610c1691906159ed565b918290555060c083019081526040805180820182526001600160a01b038e8116825260208083018f815294516000908152600e90915292909220905181546001600160a01b0319169216919091178155905160019091015550610c9d565b80610120015191508061018001519550806101a001519450806101400151935080610160015192505b60405163c87b56dd60e01b8152600481018a90526000906001600160a01b038c169063c87b56dd9060240160006040518083038186803b158015610ce057600080fd5b505afa158015610cf4573d6000803e3d6000fd5b505050506040513d6000823e601f3d908101601f19168201604052610d1c9190810190615465565b9050604051806101c00160405280610d32613a5e565b6001600160a01b031681526020018281526020018a8152602001896001600160a01b031681526020016001151581526020016001151581526020018360c0015181526020016000151581526020016000815260200184815260200186815260200185815260200188815260200187815250600560008d6001600160a01b03166001600160a01b0316815260200190815260200160002060008c815260200190815260200160002060008201518160000160006101000a8154816001600160a01b0302191690836001600160a01b031602179055506020820151816001019080519060200190610e22929190614d77565b50604082015160028201556060820151600382018054608085015160a08601511515600160a81b0260ff60a81b19911515600160a01b026001600160a81b03199093166001600160a01b0390951694909417919091171691909117905560c0820151600482015560e082015160058201805491151560ff19909216919091179055610100820151600682015561012082015160078201556101408201518051610ed5916008840191602090910190614dfb565b506101608201518051610ef2916009840191602090910190614e50565b506101808201518051610f0f91600a840191602090910190614dfb565b506101a08201518051610f2c91600b840191602090910190614e50565b509050507f3d7ca1b1a8d8890ced244e670a24bc690c90b6f5c1663aaef59f59a882ef0ebb8260c001518c8c8c8c8689610f64613a5e565b6001604051610f7b999897969594939291906158d7565b60405180910390a17fa3134d0189bea66132cdda0b56b6ad21d9f4f6cf2c26f5074dfaf14c07a4d96b858589898660c001518f604051610fc096959493929190615755565b60405180910390a15050505050505050505050565b60408051606081810183526001600160a01b038816600081815260026020908152908590205484528301529181018690526110138782878787613abb565b6110695760405162461bcd60e51b815260206004820152602160248201527f5369676e657220616e64207369676e617475726520646f206e6f74206d6174636044820152600d60fb1b60648201526084016107a0565b6001600160a01b03871660009081526002602052604090205461108d906001613bb3565b6001600160a01b0388166000908152600260205260409081902091909155517f5845892132946850460bff5a0083f71031bc5bf9aadcd40f1de79423eac9b10b906110dd90899033908a9061569a565b60405180910390a1600080306001600160a01b0316888a604051602001611105929190615626565b60408051601f198184030181529082905261111f9161560a565b6000604051808303816000865af19150503d806000811461115c576040519150601f19603f3d011682016040523d82523d6000602084013e611161565b606091505b5091509150816111b35760405162461bcd60e51b815260206004820152601c60248201527f46756e6374696f6e2063616c6c206e6f74207375636365737366756c0000000060448201526064016107a0565b98975050505050505050565b6001600160a01b0387166000908152600d602052604081208054829160019183906111eb9084906159ed565b918290555060405162491fcf60e11b8152600481018290529092506001600160a01b038b16915062923f9e9060240160206040518083038186803b15801561123257600080fd5b505afa158015611246573d6000803e3d6000fd5b505050506040513d601f19601f8201168201806040525081019061126a9190615443565b156112aa5760405162461bcd60e51b815260206004820152601060248201526f125b9d985b1a59081d1bdad95b88125160821b60448201526064016107a0565b6006546001600160a01b031663aa271e1a6112c3613a5e565b6040516001600160e01b031960e084901b1681526001600160a01b03909116600482015260240160206040518083038186803b15801561130257600080fd5b505afa158015611316573d6000803e3d6000fd5b505050506040513d601f19601f8201168201806040525081019061133a9190615443565b6113915760405162461bcd60e51b815260206004820152602260248201527f596f7520617265206e6f7420616c6c6f77656420746f206d696e7420746f6b656044820152616e7360f01b60648201526084016107a0565b61139b8484613bc6565b6113a58686613bc6565b6001600160a01b03808a166000908152600560209081526040808320858452825280832081516101c08101909252805490941681526001840180549394919391928401916113f290615a89565b80601f016020809104026020016040519081016040528092919081815260200182805461141e90615a89565b801561146b5780601f106114405761010080835404028352916020019161146b565b820191906000526020600020905b81548152906001019060200180831161144e57829003601f168201915b5050509183525050600282015460208083019190915260038301546001600160a01b03811660408085019190915260ff600160a01b8304811615156060860152600160a81b909204821615156080850152600485015460a08501526005850154909116151560c0840152600684015460e0840152600784015461010084015260088401805482518185028101850190935280835261012090940193919290919083018282801561154457602002820191906000526020600020905b81546001600160a01b03168152600190910190602001808311611526575b505050505081526020016009820180548060200260200160405190810160405280929190818152602001828054801561159c57602002820191906000526020600020905b815481526020019060010190808311611588575b50505050508152602001600a82018054806020026020016040519081016040528092919081815260200182805480156115fe57602002820191906000526020600020905b81546001600160a01b031681526001909101906020018083116115e0575b50505050508152602001600b820180548060200260200160405190810160405280929190818152602001828054801561165657602002820191906000526020600020905b815481526020019060010190808311611642575b50505050508152505090508060c00151600014156116db576001600b600082825461168191906159ed565b918290555060c083019081526040805180820182526001600160a01b038e81168252602080830188815294516000908152600e90915292909220905181546001600160a01b03191692169190911781559051600190910155505b80516001600160a01b0316158061170e57506116f5613a5e565b6001600160a01b031681600001516001600160a01b0316145b61175a5760405162461bcd60e51b815260206004820152601860248201527f4e6f7420796f7572206f6666657220746f206d6f64696679000000000000000060448201526064016107a0565b604051806101c0016040528061176e613a5e565b6001600160a01b03908116825260208083018d905260006040808501829052606085018290526080850182905260a0850182905260c0878101519086015260e08501829052610100850182905261012085018e905261014085018d905261016085018c905261018085018b90526101a09094018990528e8316815260058252838120878252825292909220835181546001600160a01b0319169216919091178155828201518051919261182992600185019290910190614d77565b50604082015160028201556060820151600382018054608085015160a08601511515600160a81b0260ff60a81b19911515600160a01b026001600160a81b03199093166001600160a01b0390951694909417919091171691909117905560c0820151600482015560e082015160058201805491151560ff199092169190911790556101008201516006820155610120820151600782015561014082015180516118dc916008840191602090910190614dfb565b5061016082015180516118f9916009840191602090910190614e50565b50610180820151805161191691600a840191602090910190614dfb565b506101a0820151805161193391600b840191602090910190614e50565b509050507f0b7ede027bbef7e1772520307bbaf2face73cd8113294feff1c8ccf581248af58160c001518b84611967613a5e565b8d8d60405161197b9695949392919061588b565b60405180910390a17fa3134d0189bea66132cdda0b56b6ad21d9f4f6cf2c26f5074dfaf14c07a4d96b878787878560c00151876040516119c096959493929190615755565b60405180910390a15098975050505050505050565b6001600160a01b038085166000908152600560209081526040808320878452825280832081516101c0810190925280549094168152600184018054939491939192840191611a2290615a89565b80601f0160208091040260200160405190810160405280929190818152602001828054611a4e90615a89565b8015611a9b5780601f10611a7057610100808354040283529160200191611a9b565b820191906000526020600020905b815481529060010190602001808311611a7e57829003601f168201915b5050509183525050600282015460208083019190915260038301546001600160a01b03811660408085019190915260ff600160a01b8304811615156060860152600160a81b909204821615156080850152600485015460a08501526005850154909116151560c0840152600684015460e08401526007840154610100840152600884018054825181850281018501909352808352610120909401939192909190830182828015611b7457602002820191906000526020600020905b81546001600160a01b03168152600190910190602001808311611b56575b5050505050815260200160098201805480602002602001604051908101604052809291908181526020018280548015611bcc57602002820191906000526020600020905b815481526020019060010190808311611bb8575b50505050508152602001600a8201805480602002602001604051908101604052809291908181526020018280548015611c2e57602002820191906000526020600020905b81546001600160a01b03168152600190910190602001808311611c10575b50505050508152602001600b8201805480602002602001604051908101604052809291908181526020018280548015611c8657602002820191906000526020600020905b815481526020019060010190808311611c72575b5050505050815250509050611c99613a5e565b6001600160a01b031681600001516001600160a01b031614611cfd5760405162461bcd60e51b815260206004820152601960248201527f596f7520646f206e6f74206f776e2074686973206f666665720000000000000060448201526064016107a0565b60408181018490526001600160a01b038381166060840152600060e084018190526001608085018190526101008501829052888316825260056020908152848320898452815293909120845181546001600160a01b03191693169290921782558284015180518594611d73938501920190614d77565b50604082015160028201556060820151600382018054608085015160a08601511515600160a81b0260ff60a81b19911515600160a01b026001600160a81b03199093166001600160a01b0390951694909417919091171691909117905560c0820151600482015560e082015160058201805491151560ff19909216919091179055610100820151600682015561012082015160078201556101408201518051611e26916008840191602090910190614dfb565b506101608201518051611e43916009840191602090910190614e50565b506101808201518051611e6091600a840191602090910190614dfb565b506101a08201518051611e7d91600b840191602090910190614e50565b509050507f3d7ca1b1a8d8890ced244e670a24bc690c90b6f5c1663aaef59f59a882ef0ebb8160c0015186868686866020015187610120015188600001516000604051611ed2999897969594939291906158d7565b60405180910390a17fa3134d0189bea66132cdda0b56b6ad21d9f4f6cf2c26f5074dfaf14c07a4d96b816101400151826101600151836101800151846101a001518560c0015189604051611f2b96959493929190615755565b60405180910390a15050505050565b6005602090815260009283526040808420909152908252902080546001820180546001600160a01b039092169291611f7190615a89565b80601f0160208091040260200160405190810160405280929190818152602001828054611f9d90615a89565b8015611fea5780601f10611fbf57610100808354040283529160200191611fea565b820191906000526020600020905b815481529060010190602001808311611fcd57829003601f168201915b5050505060028301546003840154600485015460058601546006870154600790970154959693956001600160a01b038416955060ff600160a01b8504811695600160a81b909504811694921691908a565b6003546001600160a01b031661204f613a5e565b6001600160a01b0316146120755760405162461bcd60e51b81526004016107a090615865565b6001600160a01b0381166120cb5760405162461bcd60e51b815260206004820152601a60248201527f446f206e6f742073657420746f2061646472657373207a65726f00000000000060448201526064016107a0565b600a546040516001600160a01b038084169216907ff404d79dbd5d19bc2bf99a74f0e5affb6502b3d6012140f1d908ce3fcd0716d890600090a3600a80546001600160a01b0319166001600160a01b0392909216919091179055565b6001600160a01b038084166000908152600560209081526040808320868452825280832081516101c0810190925280549094168152600184018054889592938401919061217390615a89565b80601f016020809104026020016040519081016040528092919081815260200182805461219f90615a89565b80156121ec5780601f106121c1576101008083540402835291602001916121ec565b820191906000526020600020905b8154815290600101906020018083116121cf57829003601f168201915b5050509183525050600282015460208083019190915260038301546001600160a01b03811660408085019190915260ff600160a01b8304811615156060860152600160a81b909204821615156080850152600485015460a08501526005850154909116151560c0840152600684015460e084015260078401546101008401526008840180548251818502810185019093528083526101209094019391929091908301828280156122c557602002820191906000526020600020905b81546001600160a01b031681526001909101906020018083116122a7575b505050505081526020016009820180548060200260200160405190810160405280929190818152602001828054801561231d57602002820191906000526020600020905b815481526020019060010190808311612309575b50505050508152602001600a820180548060200260200160405190810160405280929190818152602001828054801561237f57602002820191906000526020600020905b81546001600160a01b03168152600190910190602001808311612361575b50505050508152602001600b82018054806020026020016040519081016040528092919081815260200182805480156123d757602002820191906000526020600020905b8154815260200190600101908083116123c3575b505050919092525050815160a08301519293509115905061249a576040516331a9108f60e11b8152600481018690526001600160a01b03841690636352211e9060240160206040518083038186803b15801561243257600080fd5b505afa158015612446573d6000803e3d6000fd5b505050506040513d601f19601f8201168201806040525081019061246a9190615000565b6001600160a01b0316816001600160a01b03161461249a5760405162461bcd60e51b81526004016107a090615824565b6124a2613a5e565b6001600160a01b0316816001600160a01b0316146124f15760405162461bcd60e51b815260206004820152600c60248201526b155b985d5d1a1bdc9a5cd95960a21b60448201526064016107a0565b60016080830181905260408084018690526001600160a01b038881166000908152600560209081528382208a83528152929020855181546001600160a01b031916921691909117815581850151805186949293612552938501920190614d77565b50604082015160028201556060820151600382018054608085015160a08601511515600160a81b0260ff60a81b19911515600160a01b026001600160a81b03199093166001600160a01b0390951694909417919091171691909117905560c0820151600482015560e082015160058201805491151560ff19909216919091179055610100820151600682015561012082015160078201556101408201518051612605916008840191602090910190614dfb565b506101608201518051612622916009840191602090910190614e50565b50610180820151805161263f91600a840191602090910190614dfb565b506101a0820151805161265c91600b840191602090910190614e50565b505060408051878152602081018790527fe36efdb123434f0d9dcc119c468c16b0d6de5fa64252b13e049b2c87dafc2a1e92500160405180910390a1505050505050565b6001600160a01b038083166000908152600560209081526040808320858452825280832081516101c0810190925280549094168152600184018054939485948894869493908401916126f190615a89565b80601f016020809104026020016040519081016040528092919081815260200182805461271d90615a89565b801561276a5780601f1061273f5761010080835404028352916020019161276a565b820191906000526020600020905b81548152906001019060200180831161274d57829003601f168201915b5050509183525050600282015460208083019190915260038301546001600160a01b03811660408085019190915260ff600160a01b8304811615156060860152600160a81b909204821615156080850152600485015460a08501526005850154909116151560c0840152600684015460e0840152600784015461010084015260088401805482518185028101850190935280835261012090940193919290919083018282801561284357602002820191906000526020600020905b81546001600160a01b03168152600190910190602001808311612825575b505050505081526020016009820180548060200260200160405190810160405280929190818152602001828054801561289b57602002820191906000526020600020905b815481526020019060010190808311612887575b50505050508152602001600a82018054806020026020016040519081016040528092919081815260200182805480156128fd57602002820191906000526020600020905b81546001600160a01b031681526001909101906020018083116128df575b50505050508152602001600b820180548060200260200160405190810160405280929190818152602001828054801561295557602002820191906000526020600020905b815481526020019060010190808311612941575b505050505081525050905080608001516129a65760405162461bcd60e51b81526020600482015260126024820152716974656d206e6f7420617661696c61626c6560701b60448201526064016107a0565b8060a0015115612c18576001600160a01b038681166000908152600560209081526040808320898452909152908190205490516331a9108f60e11b81526004810188905290821691841690636352211e9060240160206040518083038186803b158015612a1257600080fd5b505afa158015612a26573d6000803e3d6000fd5b505050506040513d601f19601f82011682018060405250810190612a4a9190615000565b6001600160a01b031614612aa05760405162461bcd60e51b815260206004820181905260248201527f506572736f6e206f66666572696e67206973206e6f7420746865204f776e657260448201526064016107a0565b805160405163e985e9c560e01b81526001600160a01b0391821660048201523060248201529083169063e985e9c59060440160206040518083038186803b158015612aea57600080fd5b505afa158015612afe573d6000803e3d6000fd5b505050506040513d601f19601f82011682018060405250810190612b229190615443565b80612bad575060405163020604bf60e21b81526004810186905230906001600160a01b0384169063081812fc9060240160206040518083038186803b158015612b6a57600080fd5b505afa158015612b7e573d6000803e3d6000fd5b505050506040513d601f19601f82011682018060405250810190612ba29190615000565b6001600160a01b0316145b612c185760405162461bcd60e51b815260206004820152603660248201527f4f776e657220686173206e6f7420617070726f7665642073616c6520636f6e746044820152757261637420746f2073656c6c2074686973206974656d60501b60648201526084016107a0565b806040015181606001519350935050509250929050565b6001600160a01b038083166000908152600560209081526040808320858452825280832081516101c08101909252805490941681526001840180548795929384019190612c7b90615a89565b80601f0160208091040260200160405190810160405280929190818152602001828054612ca790615a89565b8015612cf45780601f10612cc957610100808354040283529160200191612cf4565b820191906000526020600020905b815481529060010190602001808311612cd757829003601f168201915b5050509183525050600282015460208083019190915260038301546001600160a01b03811660408085019190915260ff600160a01b8304811615156060860152600160a81b909204821615156080850152600485015460a08501526005850154909116151560c0840152600684015460e08401526007840154610100840152600884018054825181850281018501909352808352610120909401939192909190830182828015612dcd57602002820191906000526020600020905b81546001600160a01b03168152600190910190602001808311612daf575b5050505050815260200160098201805480602002602001604051908101604052809291908181526020018280548015612e2557602002820191906000526020600020905b815481526020019060010190808311612e11575b50505050508152602001600a8201805480602002602001604051908101604052809291908181526020018280548015612e8757602002820191906000526020600020905b81546001600160a01b03168152600190910190602001808311612e69575b50505050508152602001600b8201805480602002602001604051908101604052809291908181526020018280548015612edf57602002820191906000526020600020905b815481526020019060010190808311612ecb575b505050919092525050815160a083015192935091159050612fa2576040516331a9108f60e11b8152600481018590526001600160a01b03841690636352211e9060240160206040518083038186803b158015612f3a57600080fd5b505afa158015612f4e573d6000803e3d6000fd5b505050506040513d601f19601f82011682018060405250810190612f729190615000565b6001600160a01b0316816001600160a01b031614612fa25760405162461bcd60e51b81526004016107a090615824565b612faa613a5e565b6001600160a01b0316816001600160a01b031614612ff95760405162461bcd60e51b815260206004820152600c60248201526b155b985d5d1a1bdc9a5cd95960a21b60448201526064016107a0565b6000608083018190526001600160a01b0386811682526005602090815260408084208885528252909220845181546001600160a01b03191692169190911781558184015180518593613052926001850192910190614d77565b50604082015160028201556060820151600382018054608085015160a08601511515600160a81b0260ff60a81b19911515600160a01b026001600160a81b03199093166001600160a01b0390951694909417919091171691909117905560c0820151600482015560e082015160058201805491151560ff19909216919091179055610100820151600682015561012082015160078201556101408201518051613105916008840191602090910190614dfb565b506101608201518051613122916009840191602090910190614e50565b50610180820151805161313f91600a840191602090910190614dfb565b506101a0820151805161315c91600b840191602090910190614e50565b505060035460c0840151604080516001600160a01b039384168152602081019290925291881691810191909152606081018690527f381a7441aeb88aa11a81e74f681348d0bb00ff17f3e696a514859bd41dfa50509150608001611f2b565b6131c883838360006119d5565b505050565b60006131de8a8a88888888886111bf565b90506131ec8a828a8a6119d5565b50505050505050505050565b6003546001600160a01b031661320c613a5e565b6001600160a01b0316146132325760405162461bcd60e51b81526004016107a090615865565b6103e861323f84846159ed565b11156132ac5760405162461bcd60e51b815260206004820152603660248201527f73756d285f63726561746f725065724d696c6c65202b205f6f776e657250657260448201527504d696c6c6529206d75737420657175616c20313030360541b60648201526084016107a0565b6103e860095410156133005760405162461bcd60e51b815260206004820152601960248201527f64697669736f72206973206c657373207468616e20313030300000000000000060448201526064016107a0565b60078390556008829055600981905560408051848152602081018490529081018290527ff81b1f9d8b5d36a5a67d13006a8b091a9b63e2a38b331d315d99c6daefd2ddcc9060600160405180910390a1505050565b6001600160a01b03828116600090815260056020908152604080832085845290915290206002810154600390910154909116806133d0578134146133cb5760405162461bcd60e51b815260206004820152600d60248201526c141c9a58d9481b9bdd081b595d609a1b60448201526064016107a0565b613497565b6040516370a0823160e01b815233600482015282906001600160a01b038316906370a082319060240160206040518083038186803b15801561341157600080fd5b505afa158015613425573d6000803e3d6000fd5b505050506040513d601f19601f8201168201806040525081019061344991906154f5565b10156134975760405162461bcd60e51b815260206004820152601a60248201527f496e73756666696369656e7420746f6b656e2062616c616e636500000000000060448201526064016107a0565b6134a384848484613c83565b50505050565b6131c883838360006106b7565b6003546001600160a01b03166134ca613a5e565b6001600160a01b0316146134f05760405162461bcd60e51b81526004016107a090615865565b6001600160a01b0381166135465760405162461bcd60e51b815260206004820152601a60248201527f446f206e6f742073657420746f2061646472657373207a65726f00000000000060448201526064016107a0565b6003546040516001600160a01b038084169216907f8be0079c531659141344cd1fd0a4f28419497f9722a3daafe3b4186f6b6457e090600090a3600380546001600160a01b0319166001600160a01b0392909216919091179055565b6001600160a01b038083166000908152600560209081526040808320858452825280832081516101c0810190925280549094168152600184018054939487948694919291840191906135f390615a89565b80601f016020809104026020016040519081016040528092919081815260200182805461361f90615a89565b801561366c5780601f106136415761010080835404028352916020019161366c565b820191906000526020600020905b81548152906001019060200180831161364f57829003601f168201915b5050509183525050600282015460208083019190915260038301546001600160a01b03811660408085019190915260ff600160a01b8304811615156060860152600160a81b909204821615156080850152600485015460a08501526005850154909116151560c0840152600684015460e0840152600784015461010084015260088401805482518185028101850190935280835261012090940193919290919083018282801561374557602002820191906000526020600020905b81546001600160a01b03168152600190910190602001808311613727575b505050505081526020016009820180548060200260200160405190810160405280929190818152602001828054801561379d57602002820191906000526020600020905b815481526020019060010190808311613789575b50505050508152602001600a82018054806020026020016040519081016040528092919081815260200182805480156137ff57602002820191906000526020600020905b81546001600160a01b031681526001909101906020018083116137e1575b50505050508152602001600b820180548060200260200160405190810160405280929190818152602001828054801561385757602002820191906000526020600020905b815481526020019060010190808311613843575b5050505050815250509050806080015161387657600092505050613a58565b8060a0015161388a57600192505050613a58565b6001600160a01b038581166000908152600560209081526040808320888452909152908190205490516331a9108f60e11b81526004810187905290821691841690636352211e9060240160206040518083038186803b1580156138ec57600080fd5b505afa158015613900573d6000803e3d6000fd5b505050506040513d601f19601f820116820180604052508101906139249190615000565b6001600160a01b03161461393d57600092505050613a58565b805160405163e985e9c560e01b81526001600160a01b0391821660048201523060248201529083169063e985e9c59060440160206040518083038186803b15801561398757600080fd5b505afa15801561399b573d6000803e3d6000fd5b505050506040513d601f19601f820116820180604052508101906139bf9190615443565b156139cf57600192505050613a58565b60405163020604bf60e21b81526004810185905230906001600160a01b0384169063081812fc9060240160206040518083038186803b158015613a1157600080fd5b505afa158015613a25573d6000803e3d6000fd5b505050506040513d601f19601f82011682018060405250810190613a499190615000565b6001600160a01b031614925050505b92915050565b600033301415613ab557600080368080601f0160208091040260200160405190810160405280939291908181526020018383808284376000920191909152505050503601516001600160a01b03169150613ab89050565b50335b90565b60006001600160a01b038616613b215760405162461bcd60e51b815260206004820152602560248201527f4e61746976654d6574615472616e73616374696f6e3a20494e56414c49445f5360448201526424a3a722a960d91b60648201526084016107a0565b60006001613b36613b3188614447565b6144c4565b6040805160008152602081018083529290925260ff861690820152606081018790526080810186905260a0016020604051602081039080840390855afa158015613b84573d6000803e3d6000fd5b505050602060405103519050613b9a87826144f4565b6001600160a01b03878116911614905095945050505050565b6000613bbf82846159ed565b9392505050565b8051825114613c175760405162461bcd60e51b815260206004820152601c60248201527f726f79616c7479206c656e6774687320646f206e6f74206d617463680000000060448201526064016107a0565b6000805b8351811015613c5d57828181518110613c3657613c36615af5565b602002602001015182613c4991906159ed565b915080613c5581615ac4565b915050613c1b565b50806103e8146131c85760405163597d6e8f60e11b8152600481018290526024016107a0565b6001600160a01b038085166000908152600560209081526040808320878452825280832081516101c08101909252805490941681526001840180548995929384019190613ccf90615a89565b80601f0160208091040260200160405190810160405280929190818152602001828054613cfb90615a89565b8015613d485780601f10613d1d57610100808354040283529160200191613d48565b820191906000526020600020905b815481529060010190602001808311613d2b57829003601f168201915b5050509183525050600282015460208083019190915260038301546001600160a01b03811660408085019190915260ff600160a01b8304811615156060860152600160a81b909204821615156080850152600485015460a08501526005850154909116151560c0840152600684015460e08401526007840154610100840152600884018054825181850281018501909352808352610120909401939192909190830182828015613e2157602002820191906000526020600020905b81546001600160a01b03168152600190910190602001808311613e03575b5050505050815260200160098201805480602002602001604051908101604052809291908181526020018280548015613e7957602002820191906000526020600020905b815481526020019060010190808311613e65575b50505050508152602001600a8201805480602002602001604051908101604052809291908181526020018280548015613edb57602002820191906000526020600020905b81546001600160a01b03168152600190910190602001808311613ebd575b50505050508152602001600b8201805480602002602001604051908101604052809291908181526020018280548015613f3357602002820191906000526020600020905b815481526020019060010190808311613f1f575b50505050508152505090506000600660149054906101000a900460ff1615613f945760405162461bcd60e51b81526020600482015260146024820152734e6f207265656e7472616e637920706c6561736560601b60448201526064016107a0565b6006805460ff60a01b1916600160a01b1790558151608083015160609190613ff35760405162461bcd60e51b81526020600482015260126024820152714974656d206e6f7420617661696c61626c6560701b60448201526064016107a0565b83604001518710156140375760405162461bcd60e51b815260206004820152600d60248201526c141c9a58d9481b9bdd081b595d609a1b60448201526064016107a0565b8360a0015115614190576040516331a9108f60e11b8152600481018990526000906001600160a01b03871690636352211e9060240160206040518083038186803b15801561408457600080fd5b505afa158015614098573d6000803e3d6000fd5b505050506040513d601f19601f820116820180604052508101906140bc9190615000565b9050816001600160a01b0316816001600160a01b03161461411f5760405162461bcd60e51b815260206004820152601960248201527f4974656d206e6f74206f776e6564206279206f6666657265720000000000000060448201526064016107a0565b856001600160a01b031663b88d4fde83614137613a5e565b8c876040518563ffffffff1660e01b8152600401614158949392919061565d565b600060405180830381600087803b15801561417257600080fd5b505af1158015614186573d6000803e3d6000fd5b5050505050614212565b886001600160a01b03811663b85cbc796141a8613a5e565b875160208901516040516001600160e01b031960e086901b1681526141d39392918f9160040161565d565b600060405180830381600087803b1580156141ed57600080fd5b505af1158015614201573d6000803e3d6000fd5b5050600160a0880181905295505050505b6000608085018190526001600160a01b038a811682526005602090815260408084208c85528252909220865181546001600160a01b0319169216919091178155818601518051879361426b926001850192910190614d77565b50604082015160028201556060820151600382018054608085015160a08601511515600160a81b0260ff60a81b19911515600160a01b026001600160a81b03199093166001600160a01b0390951694909417919091171691909117905560c0820151600482015560e082015160058201805491151560ff1990921691909117905561010082015160068201556101208201516007820155610140820151805161431e916008840191602090910190614dfb565b50610160820151805161433b916009840191602090910190614e50565b50610180820151805161435891600a840191602090910190614dfb565b506101a0820151805161437591600b840191602090910190614e50565b50905050821561439a576143958461014001518561016001518989614548565b6143b7565b6143b7846101200151856101800151866101a00151848b8b614858565b6006805460ff60a01b191690557f86a49229def21f0846a4becfcf0c6639fe998ad3dbd91db6963d6e25868a429b6143ed613a5e565b855160c080880151604080516001600160a01b0395861681529385166020850152830152828d166060830152608082018c905260a082018b90529189169181019190915260e00160405180910390a1505050505050505050565b6000604051806080016040528060438152602001615b3760439139805160209182012083518483015160408087015180519086012090516144a7950193845260208401929092526001600160a01b03166040830152606082015260800190565b604051602081830303815290604052805190602001209050919050565b60006144cf60015490565b60405161190160f01b60208201526022810191909152604281018390526062016144a7565b6040516001600160a01b038084166024830152821660448201526145449060640160408051601f198184030181529190526020810180516001600160e01b0316636d786a5560e11b179052614be8565b5050565b600080600954846103e861455c9190615a27565b6145669190615a05565b90506103e8600c546103e861457b9190615a46565b6145859083615a27565b61458f9190615a05565b915060005b86518110156147115760006103e8848884815181106145b5576145b5615af5565b60200260200101516145c79190615a27565b6145d19190615a05565b905061461182604051806040016040528060018152602001602960f81b8152508a858151811061460357614603615af5565b602002602001015184614c09565b6001600160a01b0385166146475761464288838151811061463457614634615af5565b602002602001015182614c52565b6146fe565b846001600160a01b03166323b872dd338a858151811061466957614669615af5565b6020026020010151846040518463ffffffff1660e01b8152600401614690939291906156c6565b602060405180830381600087803b1580156146aa57600080fd5b505af11580156146be573d6000803e3d6000fd5b505050506040513d601f19601f820116820180604052508101906146e29190615443565b6146fe5760405162461bcd60e51b81526004016107a0906157ed565b508061470981615ac4565b915050614594565b506001600160a01b03831661473b57600a54614736906001600160a01b031647614c52565b614850565b600a546040516370a0823160e01b81523060048201526001600160a01b03858116926323b872dd9233929091169084906370a082319060240160206040518083038186803b15801561478c57600080fd5b505afa1580156147a0573d6000803e3d6000fd5b505050506040513d601f19601f820116820180604052508101906147c491906154f5565b6040518463ffffffff1660e01b81526004016147e2939291906156c6565b602060405180830381600087803b1580156147fc57600080fd5b505af1158015614810573d6000803e3d6000fd5b505050506040513d601f19601f820116820180604052508101906148349190615443565b6148505760405162461bcd60e51b81526004016107a0906157ed565b505050505050565b6000806000600954856103e861486e9190615a27565b6148789190615a05565b90506103e86148878a82615a46565b6148919083615a27565b61489b9190615a05565b91506103e86148aa8a83615a27565b6148b49190615a05565b92506148dd6040518060400160405280600581526020016437bbb732b960d91b81525083614cec565b6149066040518060400160405280600781526020016631b932b0ba37b960c91b81525084614cec565b6149108683614c52565b6149456040518060400160405280601481526020017370726f63657373696e6720726f79616c7469657360601b815250614d31565b60005b8851811015614aa95760006103e8858a848151811061496957614969615af5565b602002602001015161497b9190615a27565b6149859190615a05565b90506149b782604051806040016040528060018152602001602960f81b8152508c858151811061460357614603615af5565b6001600160a01b0386166149df576149da8a838151811061463457614634615af5565b614a96565b856001600160a01b03166323b872dd338c8581518110614a0157614a01615af5565b6020026020010151846040518463ffffffff1660e01b8152600401614a28939291906156c6565b602060405180830381600087803b158015614a4257600080fd5b505af1158015614a56573d6000803e3d6000fd5b505050506040513d601f19601f82011682018060405250810190614a7a9190615443565b614a965760405162461bcd60e51b81526004016107a0906157ed565b5080614aa181615ac4565b915050614948565b506001600160a01b038416614ad357600a54614ace906001600160a01b031647614c52565b6106ac565b600a546040516370a0823160e01b81523060048201526001600160a01b03868116926323b872dd9233929091169084906370a082319060240160206040518083038186803b158015614b2457600080fd5b505afa158015614b38573d6000803e3d6000fd5b505050506040513d601f19601f82011682018060405250810190614b5c91906154f5565b6040518463ffffffff1660e01b8152600401614b7a939291906156c6565b602060405180830381600087803b158015614b9457600080fd5b505af1158015614ba8573d6000803e3d6000fd5b505050506040513d601f19601f82011682018060405250810190614bcc9190615443565b6106ac5760405162461bcd60e51b81526004016107a0906157ed565b80516a636f6e736f6c652e6c6f67602083016000808483855afa5050505050565b6134a384848484604051602401614c23949392919061593b565b60408051601f198184030181529190526020810180516001600160e01b03166398e7f3f360e01b179052614be8565b6000826001600160a01b03168260405160006040518083038185875af1925050503d8060008114614c9f576040519150601f19603f3d011682016040523d82523d6000602084013e614ca4565b606091505b50509050806131c85760405162461bcd60e51b81526020600482015260146024820152732330b4b632b2103a379039b2b7321022ba3432b960611b60448201526064016107a0565b6145448282604051602401614d029291906157cb565b60408051601f198184030181529190526020810180516001600160e01b03166309710a9d60e41b179052614be8565b614d7481604051602401614d4591906157b8565b60408051601f198184030181529190526020810180516001600160e01b031663104c13eb60e21b179052614be8565b50565b828054614d8390615a89565b90600052602060002090601f016020900481019282614da55760008555614deb565b82601f10614dbe57805160ff1916838001178555614deb565b82800160010185558215614deb579182015b82811115614deb578251825591602001919060010190614dd0565b50614df7929150614e8a565b5090565b828054828255906000526020600020908101928215614deb579160200282015b82811115614deb57825182546001600160a01b0319166001600160a01b03909116178255602090920191600190910190614e1b565b828054828255906000526020600020908101928215614deb5791602002820182811115614deb578251825591602001919060010190614dd0565b5b80821115614df75760008155600101614e8b565b6000614eb2614ead846159c5565b615970565b9050828152838383011115614ec657600080fd5b828260208301376000602084830101529392505050565b8035614ee881615b21565b919050565b600082601f830112614efe57600080fd5b81356020614f0e614ead836159a1565b80838252828201915082860187848660051b8901011115614f2e57600080fd5b60005b85811015614f56578135614f4481615b21565b84529284019290840190600101614f31565b5090979650505050505050565b600082601f830112614f7457600080fd5b81356020614f84614ead836159a1565b80838252828201915082860187848660051b8901011115614fa457600080fd5b60005b85811015614f5657813584529284019290840190600101614fa7565b600082601f830112614fd457600080fd5b613bbf83833560208501614e9f565b600060208284031215614ff557600080fd5b8135613bbf81615b21565b60006020828403121561501257600080fd5b8151613bbf81615b21565b600080600080600060a0868803121561503557600080fd5b853561504081615b21565b9450602086013567ffffffffffffffff81111561505c57600080fd5b8601601f8101881361506d57600080fd5b61507c88823560208401614e9f565b9450506040860135925060608601359150608086013560ff811681146150a157600080fd5b809150509295509295909350565b60008060008060008060008060006101208a8c0312156150ce57600080fd5b6150d78a614edd565b985060208a013567ffffffffffffffff808211156150f457600080fd5b6151008d838e01614fc3565b995060408c0135985061511560608d01614edd565b975060808c0135965060a08c013591508082111561513257600080fd5b61513e8d838e01614eed565b955060c08c013591508082111561515457600080fd5b6151608d838e01614f63565b945060e08c013591508082111561517657600080fd5b6151828d838e01614eed565b93506101008c013591508082111561519957600080fd5b506151a68c828d01614f63565b9150509295985092959850929598565b600080600080600080600060e0888a0312156151d157600080fd5b6151da88614edd565b9650602088013567ffffffffffffffff808211156151f757600080fd5b6152038b838c01614fc3565b975060408a0135965060608a013591508082111561522057600080fd5b61522c8b838c01614eed565b955060808a013591508082111561524257600080fd5b61524e8b838c01614f63565b945060a08a013591508082111561526457600080fd5b6152708b838c01614eed565b935060c08a013591508082111561528657600080fd5b506152938a828b01614f63565b91505092959891949750929550565b600080600080600080600080610100898b0312156152bf57600080fd5b6152c889614edd565b9750602089013567ffffffffffffffff808211156152e557600080fd5b6152f18c838d01614fc3565b985060408b0135975060608b0135965060808b013591508082111561531557600080fd5b6153218c838d01614eed565b955060a08b013591508082111561533757600080fd5b6153438c838d01614f63565b945060c08b013591508082111561535957600080fd5b6153658c838d01614eed565b935060e08b013591508082111561537b57600080fd5b506153888b828c01614f63565b9150509295985092959890939650565b600080604083850312156153ab57600080fd5b82356153b681615b21565b946020939093013593505050565b6000806000606084860312156153d957600080fd5b83356153e481615b21565b95602085013595506040909401359392505050565b6000806000806080858703121561540f57600080fd5b843561541a81615b21565b93506020850135925060408501359150606085013561543881615b21565b939692955090935050565b60006020828403121561545557600080fd5b81518015158114613bbf57600080fd5b60006020828403121561547757600080fd5b815167ffffffffffffffff81111561548e57600080fd5b8201601f8101841361549f57600080fd5b80516154ad614ead826159c5565b8181528560208385010111156154c257600080fd5b6154d3826020830160208601615a5d565b95945050505050565b6000602082840312156154ee57600080fd5b5035919050565b60006020828403121561550757600080fd5b5051919050565b6000806040838503121561552157600080fd5b82359150602083013561553381615b21565b809150509250929050565b60008060006060848603121561555357600080fd5b505081359360208301359350604090920135919050565b600081518084526020808501945080840160005b838110156155a35781516001600160a01b03168752958201959082019060010161557e565b509495945050505050565b600081518084526020808501945080840160005b838110156155a3578151875295820195908201906001016155c2565b600081518084526155f6816020860160208601615a5d565b601f01601f19169290920160200192915050565b6000825161561c818460208701615a5d565b9190910192915050565b60008351615638818460208801615a5d565b60609390931b6bffffffffffffffffffffffff19169190920190815260140192915050565b6001600160a01b0385811682528416602082015260408101839052608060608201819052600090615690908301846155de565b9695505050505050565b6001600160a01b038481168252831660208201526060604082018190526000906154d3908301846155de565b6001600160a01b039384168152919092166020820152604081019190915260600190565b6001600160a01b038b81168252610140602083018190526000916157108483018e6155de565b604085019c909c5299909916606083015250951515608087015293151560a086015260c0850192909252151560e0840152610100830152610120909101525092915050565b60c08152600061576860c083018961556a565b828103602084015261577a81896155ae565b9050828103604084015261578e818861556a565b905082810360608401526157a281876155ae565b6080840195909552505060a00152949350505050565b602081526000613bbf60208301846155de565b6040815260006157de60408301856155de565b90508260208301529392505050565b60208082526019908201527f4661696c656420746f207472616e7366657220746f6b656e7300000000000000604082015260600190565b60208082526021908201527f63726561746f72206e6f206c6f6e676572206f776e73207468697320746f6b656040820152603760f91b606082015260800190565b6020808252600c908201526b1d5b985d5d1a1bdc9a5cd95960a21b604082015260600190565b8681526001600160a01b038681166020830152604082018690528416606082015260c0608082018190526000906158c4908301856155de565b90508260a0830152979650505050505050565b60006101208b835260018060a01b03808c1660208501528a604085015289606085015280891660808501528160a0850152615914828501896155de565b60c08501979097529490941660e08301525090151561010090910152509695505050505050565b84815260806020820152600061595460808301866155de565b6001600160a01b03949094166040830152506060015292915050565b604051601f8201601f1916810167ffffffffffffffff8111828210171561599957615999615b0b565b604052919050565b600067ffffffffffffffff8211156159bb576159bb615b0b565b5060051b60200190565b600067ffffffffffffffff8211156159df576159df615b0b565b50601f01601f191660200190565b60008219821115615a0057615a00615adf565b500190565b600082615a2257634e487b7160e01b600052601260045260246000fd5b500490565b6000816000190483118215151615615a4157615a41615adf565b500290565b600082821015615a5857615a58615adf565b500390565b60005b83811015615a78578181015183820152602001615a60565b838111156134a35750506000910152565b600181811c90821680615a9d57607f821691505b60208210811415615abe57634e487b7160e01b600052602260045260246000fd5b50919050565b6000600019821415615ad857615ad8615adf565b5060010190565b634e487b7160e01b600052601160045260246000fd5b634e487b7160e01b600052603260045260246000fd5b634e487b7160e01b600052604160045260246000fd5b6001600160a01b0381168114614d7457600080fdfe4d6574615472616e73616374696f6e2875696e74323536206e6f6e63652c616464726573732066726f6d2c62797465732066756e6374696f6e5369676e617475726529a2646970667358221220dbb30f0f00484fb202e7d09f514847a963117aa2b8dd87eaf7d9213688630f5864736f6c63430008070033454950373132446f6d61696e28737472696e67206e616d652c737472696e672076657273696f6e2c6164647265737320766572696679696e67436f6e74726163742c627974657333322073616c7429",
  "linkReferences": {},
  "deployedLinkReferences": {}
}