{
  "_format": "hh-sol-artifact-1",
  "contractName": "DR_TokenFactory",
  "sourceName": "contracts/tokenFactory/DR_TokenFactory.sol",
  "abi": [
    {
      "inputs": [
        {
          "internalType": "contract IDR_Registry",
          "name": "_reggie",
          "type": "address"
        },
        {
          "internalType": "address",
          "name": "_sale_address",
          "type": "address"
        }
      ],
      "stateMutability": "nonpayable",
      "type": "constructor"
    },
    {
      "anonymous": false,
      "inputs": [
        {
          "indexed": false,
          "internalType": "uint256",
          "name": "pos",
          "type": "uint256"
        },
        {
          "indexed": false,
          "internalType": "string",
          "name": "name",
          "type": "string"
        },
        {
          "indexed": false,
          "internalType": "string",
          "name": "symbol",
          "type": "string"
        },
        {
          "indexed": false,
          "internalType": "contract DR_Token",
          "name": "dr",
          "type": "address"
        },
        {
          "indexed": false,
          "internalType": "address",
          "name": "sale_address",
          "type": "address"
        },
        {
          "indexed": false,
          "internalType": "contract IDR_Registry",
          "name": "proxyregistry",
          "type": "address"
        },
        {
          "indexed": false,
          "internalType": "address",
          "name": "owner",
          "type": "address"
        }
      ],
      "name": "NewTokenIssued",
      "type": "event"
    },
    {
      "inputs": [
        {
          "internalType": "string",
          "name": "name",
          "type": "string"
        },
        {
          "internalType": "string",
          "name": "symbol",
          "type": "string"
        }
      ],
      "name": "newToken",
      "outputs": [],
      "stateMutability": "nonpayable",
      "type": "function"
    },
    {
      "inputs": [],
      "name": "number_of_tokens",
      "outputs": [
        {
          "internalType": "uint256",
          "name": "",
          "type": "uint256"
        }
      ],
      "stateMutability": "view",
      "type": "function"
    },
    {
      "inputs": [
        {
          "internalType": "uint256",
          "name": "",
          "type": "uint256"
        }
      ],
      "name": "projects",
      "outputs": [
        {
          "internalType": "contract DR_Token",
          "name": "",
          "type": "address"
        }
      ],
      "stateMutability": "view",
      "type": "function"
    },
    {
      "inputs": [],
      "name": "proxyregistry",
      "outputs": [
        {
          "internalType": "contract IDR_Registry",
          "name": "",
          "type": "address"
        }
      ],
      "stateMutability": "view",
      "type": "function"
    },
    {
      "inputs": [],
      "name": "sale_address",
      "outputs": [
        {
          "internalType": "address",
          "name": "",
          "type": "address"
        }
      ],
      "stateMutability": "view",
      "type": "function"
    }
  ],
  "bytecode": "0x608060405234801561001057600080fd5b50604051612fd2380380612fd283398101604081905261002f91610063565b600180546001600160a01b039283166001600160a01b031991821617909155600080549390921692169190911790556100b5565b6000806040838503121561007657600080fd5b82516100818161009d565b60208401519092506100928161009d565b809150509250929050565b6001600160a01b03811681146100b257600080fd5b50565b612f0e806100c46000396000f3fe60806040523480156200001157600080fd5b50600436106200005e5760003560e01c8063107046bd146200006357806324caf5e1146200009757806329bb18fb14620000ab5780634629ffea14620000bd578063635cfbda14620000d6575b600080fd5b6200007a6200007436600462000448565b620000ea565b6040516001600160a01b0390911681526020015b60405180910390f35b6001546200007a906001600160a01b031681565b6002546040519081526020016200008e565b620000d4620000ce366004620003dd565b62000115565b005b6000546200007a906001600160a01b031681565b60028181548110620000fb57600080fd5b6000918252602090912001546001600160a01b0316905081565b600054604051630935e01b60e21b81523360048201526001600160a01b03909116906324d7806c9060240160206040518083038186803b1580156200015957600080fd5b505afa1580156200016e573d6000803e3d6000fd5b505050506040513d601f19601f82011682018060405250810190620001949190620003b2565b620001b8576040516358887c2d60e11b815233600482015260240160405180910390fd5b6001546000805460405191926001600160a01b039081169291169085908590620001e2906200030f565b620001f19493929190620004b2565b604051809103906000f0801580156200020e573d6000803e3d6000fd5b50600280546001810182556000919091527f405787fa12a823e0f2b7631cc41b3ba8828b3321ca811111fa75cd3aa3bb5ace0180546001600160a01b0319166001600160a01b03831690811790915560405163f2fde38b60e01b81523360048201529192509063f2fde38b90602401600060405180830381600087803b1580156200029857600080fd5b505af1158015620002ad573d6000803e3d6000fd5b50506002546001546000546040517f8fdd4192ed93e93e0ce90f38a890b8797b698cf55ad789914d6465e4fcffaa1495506200030294508892889288926001600160a01b0392831692909116903390620004ff565b60405180910390a1505050565b61295f806200057a83390190565b600082601f8301126200032f57600080fd5b813567ffffffffffffffff808211156200034d576200034d62000563565b604051601f8301601f19908116603f0116810190828211818310171562000378576200037862000563565b816040528381528660208588010111156200039257600080fd5b836020870160208301376000602085830101528094505050505092915050565b600060208284031215620003c557600080fd5b81518015158114620003d657600080fd5b9392505050565b60008060408385031215620003f157600080fd5b823567ffffffffffffffff808211156200040a57600080fd5b62000418868387016200031d565b935060208501359150808211156200042f57600080fd5b506200043e858286016200031d565b9150509250929050565b6000602082840312156200045b57600080fd5b5035919050565b6000815180845260005b818110156200048a576020818501810151868301820152016200046c565b818111156200049d576000602083870101525b50601f01601f19169290920160200192915050565b6001600160a01b03858116825284166020820152608060408201819052600090620004e09083018562000462565b8281036060840152620004f4818562000462565b979650505050505050565b87815260e0602082015260006200051a60e083018962000462565b82810360408401526200052e818962000462565b6001600160a01b0397881660608501529587166080840152505091841660a083015290921660c0909201919091529392505050565b634e487b7160e01b600052604160045260246000fdfe6080604052600a805460ff191690556001600f553480156200002057600080fd5b506040516200295f3803806200295f833981016040819052620000439162000318565b8151829082906200005c906000906020850190620001bb565b50805162000072906001906020840190620001bb565b5050506200008f620000896200016560201b60201c565b62000169565b826001600160a01b0316637b97c8b56040518163ffffffff1660e01b815260040160206040518083038186803b158015620000c957600080fd5b505afa158015620000de573d6000803e3d6000fd5b505050506040513d601f19601f82011682018060405250810190620001049190620003ad565b6200010e57600080fd5b5050336000908152600e60205260408082208054600160ff1991821681179092556001600160a01b0395861684529190922080549091169091179055601380546001600160a01b0319169190921617905562000444565b3390565b600d80546001600160a01b038381166001600160a01b0319831681179093556040519116919082907f8be0079c531659141344cd1fd0a4f28419497f9722a3daafe3b4186f6b6457e090600090a35050565b828054620001c990620003d8565b90600052602060002090601f016020900481019282620001ed576000855562000238565b82601f106200020857805160ff191683800117855562000238565b8280016001018555821562000238579182015b82811115620002385782518255916020019190600101906200021b565b50620002469291506200024a565b5090565b5b808211156200024657600081556001016200024b565b600082601f8301126200027357600080fd5b81516001600160401b038082111562000290576200029062000415565b604051601f8301601f19908116603f01168101908282118183101715620002bb57620002bb62000415565b81604052838152602092508683858801011115620002d857600080fd5b600091505b83821015620002fc5785820183015181830184015290820190620002dd565b838211156200030e5760008385830101525b9695505050505050565b600080600080608085870312156200032f57600080fd5b84516200033c816200042b565b60208601519094506200034f816200042b565b60408601519093506001600160401b03808211156200036d57600080fd5b6200037b8883890162000261565b935060608701519150808211156200039257600080fd5b50620003a18782880162000261565b91505092959194509250565b600060208284031215620003c057600080fd5b81518015158114620003d157600080fd5b9392505050565b600181811c90821680620003ed57607f821691505b602082108114156200040f57634e487b7160e01b600052602260045260246000fd5b50919050565b634e487b7160e01b600052604160045260246000fd5b6001600160a01b03811681146200044157600080fd5b50565b61250b80620004546000396000f3fe6080604052600436106101ed5760003560e01c80634b1b7b841161010d5780639499ac54116100a0578063b88d4fde1161006f578063b88d4fde146105a4578063c87b56dd146105c4578063e8a3d485146105e4578063e985e9c5146105f9578063f2fde38b1461061957600080fd5b80639499ac541461053957806395d89b411461054f578063a22cb46514610564578063b85cbc791461058457600080fd5b8063715018a6116100dc578063715018a6146104c65780637b103999146104db5780638da5cb5b146104fb578063938e3d7b1461051957600080fd5b80634b1b7b84146104305780634f6ccce7146104665780636352211e1461048657806370a08231146104a657600080fd5b806313e7c9d8116101855780632d0335ab116101545780632d0335ab146103a75780632f745c59146103dd5780633408e470146103fd57806342842e0e1461041057600080fd5b806313e7c9d81461032357806318160ddd1461035357806320379ee51461037257806323b872dd1461038757600080fd5b8063095ea7b3116101c1578063095ea7b3146102a15780630b44a218146102c35780630c53c51c146102e35780630f7e5970146102f657600080fd5b8062923f9e146101f257806301ffc9a71461022757806306fdde0314610247578063081812fc14610269575b600080fd5b3480156101fe57600080fd5b5061021261020d36600461218b565b610639565b60405190151581526020015b60405180910390f35b34801561023357600080fd5b5061021261024236600461211c565b61064a565b34801561025357600080fd5b5061025c61066f565b60405161021e9190612295565b34801561027557600080fd5b5061028961028436600461218b565b610701565b6040516001600160a01b03909116815260200161021e565b3480156102ad57600080fd5b506102c16102bc3660046120d5565b61078e565b005b3480156102cf57600080fd5b506102c16102de366004612022565b6108a4565b61025c6102f1366004612059565b610931565b34801561030257600080fd5b5061025c604051806040016040528060018152602001603160f81b81525081565b34801561032f57600080fd5b5061021261033e366004611f30565b600e6020526000908152604090205460ff1681565b34801561035f57600080fd5b506008545b60405190815260200161021e565b34801561037e57600080fd5b50600b54610364565b34801561039357600080fd5b506102c16103a2366004611f7e565b610b1b565b3480156103b357600080fd5b506103646103c2366004611f30565b6001600160a01b03166000908152600c602052604090205490565b3480156103e957600080fd5b506103646103f83660046120d5565b610b4c565b34801561040957600080fd5b5046610364565b34801561041c57600080fd5b506102c161042b366004611f7e565b610be2565b34801561043c57600080fd5b5061028961044b36600461218b565b6010602052600090815260409020546001600160a01b031681565b34801561047257600080fd5b5061036461048136600461218b565b610bfd565b34801561049257600080fd5b506102896104a136600461218b565b610c90565b3480156104b257600080fd5b506103646104c1366004611f30565b610d07565b3480156104d257600080fd5b506102c1610d8e565b3480156104e757600080fd5b50601354610289906001600160a01b031681565b34801561050757600080fd5b50600d546001600160a01b0316610289565b34801561052557600080fd5b506102c1610534366004612156565b610dc4565b34801561054557600080fd5b50610364600f5481565b34801561055b57600080fd5b5061025c610e05565b34801561057057600080fd5b506102c161057f366004612022565b610e14565b34801561059057600080fd5b506102c161059f366004611fba565b610e1f565b3480156105b057600080fd5b506102c16105bf366004611fba565b610f38565b3480156105d057600080fd5b5061025c6105df36600461218b565b610f70565b3480156105f057600080fd5b5061025c61107d565b34801561060557600080fd5b50610212610614366004611f4b565b61108c565b34801561062557600080fd5b506102c1610634366004611f30565b61114f565b6000610644826111ea565b92915050565b60006001600160e01b0319821663780e9d6360e01b1480610644575061064482611207565b60606000805461067e906123db565b80601f01602080910402602001604051908101604052809291908181526020018280546106aa906123db565b80156106f75780601f106106cc576101008083540402835291602001916106f7565b820191906000526020600020905b8154815290600101906020018083116106da57829003601f168201915b5050505050905090565b600061070c826111ea565b6107725760405162461bcd60e51b815260206004820152602c60248201527f4552433732313a20617070726f76656420717565727920666f72206e6f6e657860448201526b34b9ba32b73a103a37b5b2b760a11b60648201526084015b60405180910390fd5b506000908152600460205260409020546001600160a01b031690565b600061079982610c90565b9050806001600160a01b0316836001600160a01b031614156108075760405162461bcd60e51b815260206004820152602160248201527f4552433732313a20617070726f76616c20746f2063757272656e74206f776e656044820152603960f91b6064820152608401610769565b336001600160a01b03821614806108235750610823813361108c565b6108955760405162461bcd60e51b815260206004820152603860248201527f4552433732313a20617070726f76652063616c6c6572206973206e6f74206f7760448201527f6e6572206e6f7220617070726f76656420666f7220616c6c00000000000000006064820152608401610769565b61089f8383611257565b505050565b600d546001600160a01b031633146108ce5760405162461bcd60e51b8152600401610769906122fa565b6001600160a01b0382166000818152600e6020908152604091829020805460ff19168515159081179091558251938452908301527f1a594081ae893ab78e67d9b9e843547318164322d32c65369d78a96172d9dc8f910160405180910390a15050565b60408051606081810183526001600160a01b0388166000818152600c60209081529085902054845283015291810186905261096f87828787876112c5565b6109c55760405162461bcd60e51b815260206004820152602160248201527f5369676e657220616e64207369676e617475726520646f206e6f74206d6174636044820152600d60fb1b6064820152608401610769565b6001600160a01b0387166000908152600c60205260409020546109e99060016113bd565b6001600160a01b0388166000908152600c60205260409081902091909155517f5845892132946850460bff5a0083f71031bc5bf9aadcd40f1de79423eac9b10b90610a3990899033908a90612223565b60405180910390a1600080306001600160a01b0316888a604051602001610a619291906121ec565b60408051601f1981840301815290829052610a7b916121d0565b6000604051808303816000865af19150503d8060008114610ab8576040519150601f19603f3d011682016040523d82523d6000602084013e610abd565b606091505b509150915081610b0f5760405162461bcd60e51b815260206004820152601c60248201527f46756e6374696f6e2063616c6c206e6f74207375636365737366756c000000006044820152606401610769565b98975050505050505050565b610b2533826113c9565b610b415760405162461bcd60e51b81526004016107699061232f565b61089f838383611493565b6000610b5783610d07565b8210610bb95760405162461bcd60e51b815260206004820152602b60248201527f455243373231456e756d657261626c653a206f776e657220696e646578206f7560448201526a74206f6620626f756e647360a81b6064820152608401610769565b506001600160a01b03919091166000908152600660209081526040808320938352929052205490565b61089f83838360405180602001604052806000815250610f38565b6000610c0860085490565b8210610c6b5760405162461bcd60e51b815260206004820152602c60248201527f455243373231456e756d657261626c653a20676c6f62616c20696e646578206f60448201526b7574206f6620626f756e647360a01b6064820152608401610769565b60088281548110610c7e57610c7e612442565b90600052602060002001549050919050565b6000818152600260205260408120546001600160a01b0316806106445760405162461bcd60e51b815260206004820152602960248201527f4552433732313a206f776e657220717565727920666f72206e6f6e657869737460448201526832b73a103a37b5b2b760b91b6064820152608401610769565b60006001600160a01b038216610d725760405162461bcd60e51b815260206004820152602a60248201527f4552433732313a2062616c616e636520717565727920666f7220746865207a65604482015269726f206164647265737360b01b6064820152608401610769565b506001600160a01b031660009081526003602052604090205490565b600d546001600160a01b03163314610db85760405162461bcd60e51b8152600401610769906122fa565b610dc2600061163e565b565b600d546001600160a01b03163314610dee5760405162461bcd60e51b8152600401610769906122fa565b8051610e01906011906020840190611dee565b5050565b60606001805461067e906123db565b610e01338383611690565b600e6000610e2b61175f565b6001600160a01b0316815260208101919091526040016000205460ff16610e945760405162461bcd60e51b815260206004820152601a60248201527f6f6e6c794f70657261746f723a20756e617574686f72697365640000000000006044820152606401610769565b610e9d826111ea565b15610ee15760405162461bcd60e51b8152602060048201526014602482015273546f6b656e20616c72656164792065786973747360601b6044820152606401610769565b600082815260106020526040902080546001600160a01b0319166001600160a01b038516179055610f1284836117bc565b60008281526012602090815260409091208251610f3192840190611dee565b5050505050565b610f4233836113c9565b610f5e5760405162461bcd60e51b81526004016107699061232f565b610f6a848484846117d6565b50505050565b6060610f7b826111ea565b610fdf5760405162461bcd60e51b815260206004820152602f60248201527f4552433732314d657461646174613a2055524920717565727920666f72206e6f60448201526e3732bc34b9ba32b73a103a37b5b2b760891b6064820152608401610769565b60008281526012602052604090208054610ff8906123db565b80601f0160208091040260200160405190810160405280929190818152602001828054611024906123db565b80156110715780601f1061104657610100808354040283529160200191611071565b820191906000526020600020905b81548152906001019060200180831161105457829003601f168201915b50505050509050919050565b60606011805461067e906123db565b601354604051626e46b360e31b81526001600160a01b0384811660048301528381166024830152600092169063037235989060440160206040518083038186803b1580156110d957600080fd5b505afa1580156110ed573d6000803e3d6000fd5b505050506040513d601f19601f8201168201806040525081019061111191906120ff565b1561111e57506001610644565b6001600160a01b0380841660009081526005602090815260408083209386168352929052205460ff165b9392505050565b600d546001600160a01b031633146111795760405162461bcd60e51b8152600401610769906122fa565b6001600160a01b0381166111de5760405162461bcd60e51b815260206004820152602660248201527f4f776e61626c653a206e6577206f776e657220697320746865207a65726f206160448201526564647265737360d01b6064820152608401610769565b6111e78161163e565b50565b6000908152600260205260409020546001600160a01b0316151590565b60006001600160e01b031982166380ac58cd60e01b148061123857506001600160e01b03198216635b5e139f60e01b145b8061064457506301ffc9a760e01b6001600160e01b0319831614610644565b600081815260046020526040902080546001600160a01b0319166001600160a01b038416908117909155819061128c82610c90565b6001600160a01b03167f8c5be1e5ebec7d5bd14f71427d1e84f3dd0314c0f7b2291e5b200ac8c7c3b92560405160405180910390a45050565b60006001600160a01b03861661132b5760405162461bcd60e51b815260206004820152602560248201527f4e61746976654d6574615472616e73616374696f6e3a20494e56414c49445f5360448201526424a3a722a960d91b6064820152608401610769565b6000600161134061133b88611809565b611886565b6040805160008152602081018083529290925260ff861690820152606081018790526080810186905260a0016020604051602081039080840390855afa15801561138e573d6000803e3d6000fd5b5050506020604051035190506113a487826118b6565b6001600160a01b03878116911614905095945050505050565b60006111488284612380565b60006113d4826111ea565b6114355760405162461bcd60e51b815260206004820152602c60248201527f4552433732313a206f70657261746f7220717565727920666f72206e6f6e657860448201526b34b9ba32b73a103a37b5b2b760a11b6064820152608401610769565b600061144083610c90565b9050806001600160a01b0316846001600160a01b0316148061147b5750836001600160a01b031661147084610701565b6001600160a01b0316145b8061148b575061148b818561108c565b949350505050565b826001600160a01b03166114a682610c90565b6001600160a01b03161461150e5760405162461bcd60e51b815260206004820152602960248201527f4552433732313a207472616e73666572206f6620746f6b656e2074686174206960448201526839903737ba1037bbb760b91b6064820152608401610769565b6001600160a01b0382166115705760405162461bcd60e51b8152602060048201526024808201527f4552433732313a207472616e7366657220746f20746865207a65726f206164646044820152637265737360e01b6064820152608401610769565b61157b838383611906565b611586600082611257565b6001600160a01b03831660009081526003602052604081208054600192906115af908490612398565b90915550506001600160a01b03821660009081526003602052604081208054600192906115dd908490612380565b909155505060008181526002602052604080822080546001600160a01b0319166001600160a01b0386811691821790925591518493918716917fddf252ad1be2c89b69c2b068fc378daa952ba7f163c4a11628f55a4df523b3ef91a4505050565b600d80546001600160a01b038381166001600160a01b0319831681179093556040519116919082907f8be0079c531659141344cd1fd0a4f28419497f9722a3daafe3b4186f6b6457e090600090a35050565b816001600160a01b0316836001600160a01b031614156116f25760405162461bcd60e51b815260206004820152601960248201527f4552433732313a20617070726f766520746f2063616c6c6572000000000000006044820152606401610769565b6001600160a01b03838116600081815260056020908152604080832094871680845294825291829020805460ff191686151590811790915591519182527f17307eab39ab6107e8899845ad3d59bd9653f200f220920489ca2b5937696c31910160405180910390a3505050565b6000333014156117b657600080368080601f0160208091040260200160405190810160405280939291908181526020018383808284376000920191909152505050503601516001600160a01b031691506117b99050565b50335b90565b610e018282604051806020016040528060008152506119be565b6117e1848484611493565b6117ed848484846119f1565b610f6a5760405162461bcd60e51b8152600401610769906122a8565b60006040518060800160405280604381526020016124936043913980516020918201208351848301516040808701518051908601209051611869950193845260208401929092526001600160a01b03166040830152606082015260800190565b604051602081830303815290604052805190602001209050919050565b6000611891600b5490565b60405161190160f01b6020820152602281019190915260428101839052606201611869565b6040516001600160a01b03808416602483015282166044820152610e019060640160408051601f198184030181529190526020810180516001600160e01b0316636d786a5560e11b179052611afe565b6001600160a01b0383166119615761195c81600880546000838152600960205260408120829055600182018355919091527ff3f7a9fe364faab93b216da50a3214154f22a0a2b415b23a84c8169e8b636ee30155565b611984565b816001600160a01b0316836001600160a01b031614611984576119848382611b1f565b6001600160a01b03821661199b5761089f81611bbc565b826001600160a01b0316826001600160a01b03161461089f5761089f8282611c6b565b6119c88383611caf565b6119d560008484846119f1565b61089f5760405162461bcd60e51b8152600401610769906122a8565b60006001600160a01b0384163b15611af357604051630a85bd0160e11b81526001600160a01b0385169063150b7a0290611a35903390899088908890600401612258565b602060405180830381600087803b158015611a4f57600080fd5b505af1925050508015611a7f575060408051601f3d908101601f19168201909252611a7c91810190612139565b60015b611ad9573d808015611aad576040519150601f19603f3d011682016040523d82523d6000602084013e611ab2565b606091505b508051611ad15760405162461bcd60e51b8152600401610769906122a8565b805181602001fd5b6001600160e01b031916630a85bd0160e11b14905061148b565b506001949350505050565b80516a636f6e736f6c652e6c6f67602083016000808483855afa5050505050565b60006001611b2c84610d07565b611b369190612398565b600083815260076020526040902054909150808214611b89576001600160a01b03841660009081526006602090815260408083208584528252808320548484528184208190558352600790915290208190555b5060009182526007602090815260408084208490556001600160a01b039094168352600681528383209183525290812055565b600854600090611bce90600190612398565b60008381526009602052604081205460088054939450909284908110611bf657611bf6612442565b906000526020600020015490508060088381548110611c1757611c17612442565b6000918252602080832090910192909255828152600990915260408082208490558582528120556008805480611c4f57611c4f61242c565b6001900381819060005260206000200160009055905550505050565b6000611c7683610d07565b6001600160a01b039093166000908152600660209081526040808320868452825280832085905593825260079052919091209190915550565b6001600160a01b038216611d055760405162461bcd60e51b815260206004820181905260248201527f4552433732313a206d696e7420746f20746865207a65726f20616464726573736044820152606401610769565b611d0e816111ea565b15611d5b5760405162461bcd60e51b815260206004820152601c60248201527f4552433732313a20746f6b656e20616c7265616479206d696e746564000000006044820152606401610769565b611d6760008383611906565b6001600160a01b0382166000908152600360205260408120805460019290611d90908490612380565b909155505060008181526002602052604080822080546001600160a01b0319166001600160a01b03861690811790915590518392907fddf252ad1be2c89b69c2b068fc378daa952ba7f163c4a11628f55a4df523b3ef908290a45050565b828054611dfa906123db565b90600052602060002090601f016020900481019282611e1c5760008555611e62565b82601f10611e3557805160ff1916838001178555611e62565b82800160010185558215611e62579182015b82811115611e62578251825591602001919060010190611e47565b50611e6e929150611e72565b5090565b5b80821115611e6e5760008155600101611e73565b80356001600160a01b0381168114611e9e57600080fd5b919050565b600082601f830112611eb457600080fd5b813567ffffffffffffffff80821115611ecf57611ecf612458565b604051601f8301601f19908116603f01168101908282118183101715611ef757611ef7612458565b81604052838152866020858801011115611f1057600080fd5b836020870160208301376000602085830101528094505050505092915050565b600060208284031215611f4257600080fd5b61114882611e87565b60008060408385031215611f5e57600080fd5b611f6783611e87565b9150611f7560208401611e87565b90509250929050565b600080600060608486031215611f9357600080fd5b611f9c84611e87565b9250611faa60208501611e87565b9150604084013590509250925092565b60008060008060808587031215611fd057600080fd5b611fd985611e87565b9350611fe760208601611e87565b925060408501359150606085013567ffffffffffffffff81111561200a57600080fd5b61201687828801611ea3565b91505092959194509250565b6000806040838503121561203557600080fd5b61203e83611e87565b9150602083013561204e8161246e565b809150509250929050565b600080600080600060a0868803121561207157600080fd5b61207a86611e87565b9450602086013567ffffffffffffffff81111561209657600080fd5b6120a288828901611ea3565b9450506040860135925060608601359150608086013560ff811681146120c757600080fd5b809150509295509295909350565b600080604083850312156120e857600080fd5b6120f183611e87565b946020939093013593505050565b60006020828403121561211157600080fd5b81516111488161246e565b60006020828403121561212e57600080fd5b81356111488161247c565b60006020828403121561214b57600080fd5b81516111488161247c565b60006020828403121561216857600080fd5b813567ffffffffffffffff81111561217f57600080fd5b61148b84828501611ea3565b60006020828403121561219d57600080fd5b5035919050565b600081518084526121bc8160208601602086016123af565b601f01601f19169290920160200192915050565b600082516121e28184602087016123af565b9190910192915050565b600083516121fe8184602088016123af565b60609390931b6bffffffffffffffffffffffff19169190920190815260140192915050565b6001600160a01b0384811682528316602082015260606040820181905260009061224f908301846121a4565b95945050505050565b6001600160a01b038581168252841660208201526040810183905260806060820181905260009061228b908301846121a4565b9695505050505050565b60208152600061114860208301846121a4565b60208082526032908201527f4552433732313a207472616e7366657220746f206e6f6e20455243373231526560408201527131b2b4bb32b91034b6b83632b6b2b73a32b960711b606082015260800190565b6020808252818101527f4f776e61626c653a2063616c6c6572206973206e6f7420746865206f776e6572604082015260600190565b60208082526031908201527f4552433732313a207472616e736665722063616c6c6572206973206e6f74206f6040820152701ddb995c881b9bdc88185c1c1c9bdd9959607a1b606082015260800190565b6000821982111561239357612393612416565b500190565b6000828210156123aa576123aa612416565b500390565b60005b838110156123ca5781810151838201526020016123b2565b83811115610f6a5750506000910152565b600181811c908216806123ef57607f821691505b6020821081141561241057634e487b7160e01b600052602260045260246000fd5b50919050565b634e487b7160e01b600052601160045260246000fd5b634e487b7160e01b600052603160045260246000fd5b634e487b7160e01b600052603260045260246000fd5b634e487b7160e01b600052604160045260246000fd5b80151581146111e757600080fd5b6001600160e01b0319811681146111e757600080fdfe4d6574615472616e73616374696f6e2875696e74323536206e6f6e63652c616464726573732066726f6d2c62797465732066756e6374696f6e5369676e617475726529a26469706673582212206cd3032e3525cab93256266eeff513d92535e5eb8100e558e196fd217e099c1a64736f6c63430008070033a2646970667358221220d2d404e161761613e15229c198b7054bb0f3f5386a6a6e5e1e578a74086d394964736f6c63430008070033",
  "linkReferences": {},
  "deployedLinkReferences": {}
}